S01300006C61626F7261746F7279322E73726563A0
S214400000F03400201D04400019044000190440004C
S2144000101904400019044000190440000000000084
S214400020000000000000000000000000190440002E
S2144000301904400000000000190440001904400064
S21440004019044000190440001904400019044000F7
S21440005019044000190440001904400019044000E7
S2144000601904400025024000390240004D0240007D
S2144000706102400075024000190440001904400027
S21440008019044000190440001904400019044000B7
S21440009019044000190440001904400019044000A7
S2144000A01904400019044000190440001904400097
S2144000B01904400019044000190440001904400087
S2144000C01904400019044000190440001904400077
S2144000D01904400019044000190440001904400067
S2144000E01904400019044000190440001904400057
S2144000F0190440001904400010B5054C237833B964
S214400100044B13B10448AFF300800123237010BDA5
S2144001103404002000000000C80640000C4B43B1E9
S2144001200C480D4910B5AFF300800C48036823B95E
S21440013010BD0A48036833B97047094B002BF7D007
S214400140BDE810401847064B002BF5D0184700BFB7
S21440015000000000C806400038040020C8064000E2
S21440016000000000C06C7047806C7047430903F580
S214400170001303F207735B02DB6B00F01F0023FAE9
S21440018000F000F001007047430903F5001303F246
S21440019007735B0200F01F00012202FA00F01863AA
S2144001A07047430903F5001303F207735B0200F040
S2144001B01F00012202FA00F0586370472DE9F84309
S2144001C081460F46124B984705464846114B98477E
S2144001D0054013D0104C04F1600603E0B4420DD045
S2144001E010345DB12068B842F8D161682942F5D034
S2144001F0E3689847636825EA0305EFE7074B1B6803
S21440020023B1074B1B680BB148469847BDE8F883B7
S214400210650140006901400050040020C4040020ED
S214400220C004002008B509210148024B984708BD84
S214400230000E0E40BD01400008B50A210148024BA1
S214400240984708BD00100E40BD01400008B50B2180
S2144002500148024B984708BD00120E40BD014000C1
S21440026008B50C210148024B984708BD00140E40C3
S214400270BD01400008B50D210148024B984708BD16
S21440028000160E40BD01400010B54FF40042494BE9
S2144002905A600920484CA0470A20A0470B20A04798
S2144002A00C20A0470D20A047444B01221A61C3F8FA
S2144002B0A0201A6342494FF480120A61C1F8A02078
S2144002C00A634FF400100861C1F8A00008634FF4B9
S2144002D000215961C3F8A0105966C3F890105965BB
S2144002E01962C3F88410186F20F400201867586FFE
S2144002F020F400205867C3F8C010C3F8D410C3F8E1
S214400300B0105A61C3F8A0205A66C3F890205A65C8
S2144003101A62C3F88420196F21F480111967596F47
S21440032021F480115967C3F8C020C3F8D020C3F821
S214400330B02002225A61C3F8A0205A66C3F8902023
S2144003405A651A62C3F88420196F21F002011967B2
S214400350596F21F002015967C3F8B42004225A614C
S214400360C3F8A0205A66C3F890205A651A62C3F8AC
S2144003708420196F21F004011967596F21F0040198
S2144003805967C3F8C020C3F8D420C3F8B0204FF450
S214400390C0621A66C3F890205A655A62C3F8802035
S2144003A0196F21F4C0611967596F21F4C06159670C
S2144003B05A6010BD50180E40C5034000000E0E4057
S2144003C000140E402F281ED81F280CD8114B9A69AF
S2144003D001238340934318D0012303FA00F00D4BCA
S2144003E018610020704720380A4BD3F808210123B3
S2144003F0834093430BD0012303FA00F0054BC3F828
S2144004000001002070470120704700207047002000
S214400410704700BF00040E40FEE7000000B583B002
S214400420254B264A9A4210D0254B234A9A420CD254
S214400430013B9B1A23F00303043313441F4951F82E
S214400440040B42F8040B9A42F9D11E4B1E4A9A42BC
S2144004500AD2013B9B1A23F00303043313440021C2
S21440046042F8041B9342FBD1184A194B23F07F03F2
S2144004709360EFF31083B3FA83F35B09019372B68C
S214400480BFF35F8F0022134B1A700199124A13680C
S21440049043F470031360BFF34F8FBFF36F8F29B1E0
S2144004A001220C4B1A70BFF35F8F62B60B4B984716
S2144004B00B4B9847FEE700BF00000020C8064000F0
S2144004C034040020EC0400203404002000ED00E05A
S2144004D0000040000000002088ED00E031054000AC
S2144004E0E504400008B50D4B984709200C4CA04742
S2144004F00A20A0470B20A0470C20A0470D20A0476D
S214400500084D7424084E02E02046084B98471320B6
S214400510A8470028F8D02046B047F5E789024000B3
S214400520C50340006D014000A30140008901400022
S21440053070B50F4E0F4D761BB61018BF002405D071
S214400540013455F8043B9847A642F9D10A4E0B4D64
S214400550761B00F0A7F8B61018BF002406D001346A
S21440056055F8043B9847A642F9D170BD70BD00BF10
S214400570B0064000B0064000B8064000B006400056
S214400580024B13B1024800F005B870470000000067
S214400590A1054000002301461A46184600F01EB842
S2144005A038B50A4C0A4D641BA4100AD004F18043A7
S2144005B0013B05EB8305013C55F804399847002C70
S2144005C0F9D1BDE8384000F077B800BFC806400013
S2144005D0C4064000704700BF704700BF2DE9F8438F
S2144005E02C4D0646286898460F469146FFF7F2FF80
S2144005F0294B1C68D4F84831002B3ED05A681F2A35
S2144006001CDC02F1010E76B103EB82010124C1F835
S2144006108890D3F8880194402043022EC3F888017E
S214400620C1F8088123D00232C3F804E0286843F8B2
S2144006302270FFF7D1FF0020BDE8F883174B0BB3BD
S2144006404FF4C870AFF300800346D8B1D4F84821C1
S2144006500260002141600A46C4F848014FF0010E8E
S214400660C0F88811C0F88C11002EDCD0CCE7D3F847
S2144006708C110C43C3F88C41D5E704F5A673C4F837
S2144006804831BBE72868FFF7A7FF4FF0FF30BDE8CB
S214400690F88300BF30040020A006400000000000A1
S2144006A008000020F8B500BFF8BC08BC9E4670475E
S2144006B0810540001D014000F8B500BFF8BC08BCED
S20C4006C09E467047F900400019
S2144006C8010000000000000000000000F4020020C6
S2144006D85C030020C4030020000000000000000067
S2144006E800000000000000000000000000000000BD
S2144006F800000000000000000000000000000000AD
S214400708000000000000000000000000000000009C
S214400718000000000000000000000000000000008C
S214400728000000000000000000000000000000007C
S214400738000000000000000000000000000000006C
S214400748000000000000000000000000000000005C
S214400758000000000000000000000000000000004C
S214400768000000000000000000000000000000003C
S21440077801000000000000000E33CDAB34126DE6D9
S214400788ECDE05000B000000000000000000000042
S214400798000000000000000000000000000000000C
S2144007A800000000000000000000000000000000FC
S2144007B800000000000000000000000000000000EC
S2144007C800000000000000000000000000000000DC
S208400AF8C8040020C9
S80440041D9A
