S02000005245534953544956455F544F5543485F4558414D504C45312E73726563C8
S214400000F83E0020791A4000751A4000751A4000E4
S214400010751A4000751A4000751A4000000000002E
S214400020000000000000000000000000751A4000BC
S214400030751A400000000000751A40008902400012
S214400040751A4000751A4000751A4000751A40002F
S214400050751A4000751A4000751A4000751A40001F
S214400060751A4000351440004514400055144000B1
S2144000706514400075144000751A4000751A40001B
S214400080751A4000751A4000751A4000751A4000EF
S214400090751A4000751A4000751A4000751A4000DF
S2144000A0751A4000751A4000751A4000751A4000CF
S2144000B0751A4000751A4000751A4000751A4000BF
S2144000C0751A4000751A4000751A4000751A4000AF
S2144000D0751A4000751A4000751A4000751A40009F
S2144000E0751A4000751A4000751A4000751A40008F
S2144000F0751A4000751A400010B5054C237833B980
S214400100044B13B10448AFF300800123237010BDA5
S214400110E809002000000000945840000C4B43B112
S2144001200C480D4910B5AFF300800C48036823B95E
S21440013010BD0A48036833B97047094B002BF7D007
S214400140BDE810401847064B002BF5D0184700BFB7
S2144001500000000094584000EC09002094584000ED
S2144001600000000073B500230193164B98420446E6
S2144001700D4607D1144E29462046B0470028FAD1EE
S21440018002B070BD114B984206D10F4E294620460C
S214400190B0470028FAD1F3E70D4B984208D10D4EF0
S2144001A001A92046B0470028FAD1019B2B70E7E70B
S2144001B0094B9842E4D1074E01A92046B047002893
S2144001C0FAD1F2E700060E404B1740000006064004
S2144001D000000A406D17400000400A400378012B9B
S2144001E003D007D3022B09D0704782884188054840
S2144001F0054B1847828841880448F9E78288418839
S2144002000348F5E7B84D4000CD1D4000D84D4000AE
S214400210F84D4000164B984270B504460D4607D13F
S214400220144E29462046B0470028FAD1012070BD1A
S214400230114B984206D10F4E29462046B04700281B
S214400240FAD1F3E70D4B984206D10D4E294620468B
S214400250B0470028FAD1E9E70A4B984206D1084E43
S21440026029462046B0470028FAD1DFE7002070BD77
S21440027000060E403D1740000006064000000A40BB
S2144002805B17400000400A40064B1A6801321A606D
S21440029019680A22B1FBF2F302FB13130BB9024BA7
S2144002A018477047040A002069194000F0B5484BCB
S2144002B0484F494C494D85B09847494B9847072089
S2144002C0B847484B484A1C60484B49491A60494B16
S2144002D0494A1A6007204FF4E1324FF400638DE834
S2144002E00E00B84769462046444B454C98472B6815
S2144002F000219868A0472B68424D58680021A047C7
S2144003000920B8470A20B8470B20B8473E48A847B8
S2144003103E48A8473E4B4FF6FF125A603D4AF026ED
S214400320002482F8236007229C601A603A4B984764
S2144003300820B8474FF0023201213848384B9847DA
S214400340384A3648384B01219847384A3348384B64
S21440035001219847032201213048364B98476FF0D9
S2144003607F47354B00966846019602940397984718
S2144003703846324B324F984732462146204633461F
S214400380B847304B304F9847304B1020984722465E
S21440039009212F48B84722460A212E48B847224608
S2144003A00B212D482D4CB847314630462C4B2D4E10
S2144003B098472D4B98472D482D4B9847B04710F0FF
S2144003C0FF0F02D12B48A847FEE72046A847F5E78F
S2144003D079044000C515400000060E403800002055
S2144003E0C1064000C80E002015024000C40E002082
S2144003F00090D003C00E0020650140000917400061
S2144004003D1F40002D1F4000184E40006D4E4000DE
S21440041010E000E000ED00E001094000000006406A
S2144004205D12400004040A0A631240000A001600E7
S2144004306B12400073124000F90B4000190B40004D
S214400440910F4000E90A4000851440009D08400096
S214400450000E0E4000100E4000120E40B64E4000F9
S214400460291840008D1C400071184000DD014000F6
S2144004705D1940009C4E400070B50F480F4C104D23
S214400480A0473E2100200F4B9847A8470028FCD0A5
S2144004900D4B0E4D98470E4B0E4A9A62A8470028C1
S2144004A0FCD00D4B102098470C4B984723460C48E1
S2144004B0BDE87040184700BF000E2707E51B400008
S2144004C0951540004D154000A5154000B515400057
S2144004D000040E40033F1F20091540001D1B40002E
S2144004E00090D00310B5114B0446984780232360F4
S2144004F0636843F001036360636843F0100363601E
S214400500636823F08003636020460021084B9847C9
S214400510636823F002036360636823F00403636048
S21440052020460021034BBDE8104018470516400002
S21440053011164000271640002DE9F04104460D46AE
S21440054018461449144BDFF868801646984700232F
S21440055007461A4629682046C04729680F4B20465A
S21440056008229847FAB229680D4B204698472968D2
S2144005700C4B204608229847720829680A4B2046AA
S2144005809847F2432968094B204602F00102BDE82D
S214400590F04118470090D003B9164000A516400019
S2144005A0CF16400065164000391640004F164000F2
S2144005B0EF1640004368096813F0040F02D00F2975
S2144005C006D970470329FCD8012303FA01F1C94331
S2144005D0004B1847111640002DE9F0410E461446D0
S2144005E088B90B4FDFF82C801546611B002D31442F
S2144005F003DC24EAE470BDE8F0813868D8F80030BF
S2144006009847013DF1E74FF0FF30BDE8F08100BF6D
S214400610C80E0020C00E0020013802282DE9F04107
S2144006200E4612D80B4FDFF830808D180C46AC4281
S214400630A4EB060001D1BDE8F081386814F8011B30
S214400640D8F8003098470028F1DA4FF0FF30BDE880
S214400650F08100BFC80E0020C40E002000F01F022C
S214400660400900F5001000F2077040020123934055
S2144006700A074CBF43660366CA064CBFC0F89430B0
S214400680C0F890308A064CBF0365436511F0C00F32
S21440069014BF036243620A064CBFC0F88430C0F8F9
S2144006A08030026F11F0010F14BF1A439A4302675D
S2144006B0426F89074CBF134322EA030343677047E0
S2144006C0714B2DE9F74F4FF400425A606F4C704F14
S2144006D0704D0920A0470A20A0470B20A0470C20B9
S2144006E0A0470D20A0476C4C4FF400134FF48016E3
S2144006F04FF400284FF00109C4F810908821C4F840
S214400700A0901320C4F830903E61C7F8A0603E63C6
S2144007103B61C7F8A0303B63C4F81480C4F8A0809F
S214400720A8474FF0020BC4F8C0808821C4F8D48094
S2144007301420C4F8B0806661C4F8A060A847C4F826
S214400740C0604846C4F8D0608821C4F8B06004262B
S214400750C4F814B0C4F8A0B0A847C4F8B4B058461B
S21440076066618821C4F8A060A8474FF4C062C4F808
S214400770C060C4F8D460C4F8B0602266C4F8902064
S21440078062656262C4F88020216F21F4C0612167EF
S214400790616F21F4C061616762604FF480326261CC
S2144007A00821C4F8A0201020A8474FF40032626108
S2144007B00821C4F8A0201120A84700210C20A847F3
S2144007C04FF4805262604FF4005A00210D20A84733
S2144007D0C4F804A000210E20A8474FF4804262606F
S2144007E000210B20A8474FF4006262600821402099
S2144007F00192A847C4F8049408214120A847C4F8A9
S21440080004B408214220A847C4F8046408210826F6
S2144008104320A8473146C4F804644420A847102320
S214400820C4F8043431464520A8472023C4F804348D
S21440083031464620A8474023C4F804343146472072
S214400840A8478023C4F8043431464B20A847019A71
S214400850C4F8042431464820A8474FF48073C4F8AF
S214400860043431467220A8474FF480237B603146DB
S2144008705320A847C4F80484C4F810A4C4F8A0A41D
S21440088003B0BDE8F08F00BF50180E40C5154000BD
S21440089000140E405D064000000E0E40F7B5C0F155
S2144008A01100102828BF1020144A00284FF4005189
S2144008B008BF012000230F461824164657630194AC
S2144008C0019D05F1FF3ECDF804E0002DF8D13163DF
S2144008D00194019D05F1FF3ECDF804E0002DF8D1CE
S2144008E001339842EAD14FF400330193019B5A1EDC
S2144008F00192002BFAD103B0F0BD00BF00120E40AB
S214400900074B82B04FF400525A634FF400330193C2
S214400910019B5A1E0192002BFAD102B0704700BFCD
S21440092000120E40044BC0F307421A70C0F3072271
S214400930C0B21A7018707047020000612DE9F0418D
S214400940164D07460446002621F00708464504F1A2
S214400950200404D3114C8E421BD3BDE8F08154F8DA
S214400960200CA84754F81C0CA84754F8180CA84765
S21440097054F8140CA84754F8100CA84754F80C0C1C
S214400980A84754F8080CA84754F8040CA84708365B
S214400990DCE757F82600A0470136DCE7250940008B
S2144009A04FF0C24300221A700A0AC9B218709A70F1
S2144009B0997070474FF0C24310B500241C70064C27
S2144009C018700846431ADBB29A4200D810BD10F899
S2144009D0013B2370F6E700BF0200006182B00023AF
S2144009E007490193019A824201D302B070470193AE
S2144009F0019A8A42019A02F101020192F8D9F1E77E
S214400A009F86010030B5144C05682468A54224BF73
S214400A1004F1FF3505601568AC429CBF04F1FF3415
S214400A2014600E4C0D682468A54224BF04F1FF35BF
S214400A300D601D68AC429CBF04F1FF341C60046826
S214400A401568AC4284BF056014600A681868824224
S214400A5084BF08601A6030BD0400002008000020F3
S214400A600A4B1B78012B06D14FF0C24300221A7066
S214400A7022221A707047022BFCD14FF0C2432C2220
S214400A801A7000221A703C22F3E700BF080A0020C2
S214400A9010B54FF0C240D323002202700370104BB3
S214400AA0197819781C78197801EB042189B249F233
S214400AB04134A14204D10B4B02211970104610BD9F
S214400AC00270027019781B7803EB01239BB249F23F
S214400AD025318B424FF00100F1D1024B1870EDE703
S214400AE002000061080A0020084B1B78012B04D145
S214400AF040F233110720064B1847022B04D1002240
S214400B0011462920034B1847704700BF080A0020AB
S214400B10A1094000B5094000034A002342F82300DB
S214400B200133F02BFAD170470C0A00202DE9F3412F
S214400B301E46234B1B78012B0C46174616D185B212
S214400B40DFF8848029465020C047781E284481B26A
S214400B50A4B25120013EC047214652203444C047EB
S214400B60A1B25320C04702B0BDE8F081022BFAD1B3
S214400B70013F030AC2B238448DF805201744000AE4
S214400B8004220DEB02018DF806000E4D8DF8043060
S214400B902A208DF80770013EA847230A8DF80430B6
S214400BA00422E3B23444240A1E440DEB02012B20F7
S214400BB08DF805308DF806408DF80760A847D2E7D7
S214400BC0080A0020B5094000A109400070B5084B4E
S214400BD01B78012B0D4609D1064C01462020A04724
S214400BE0294623462120BDE87040184770BD00BF07
S214400BF0080A0020A10940002DE9F743AA4B074602
S214400C009847054618B1012003B0BDE8F083A74BCE
S214400C10F0221A60A64B4FF4A0721A60A54B1E78BD
S214400C20012E40F0B280A44CDFF8A082332107208A
S214400C30A04729461020A04731462846A0474FF4F3
S214400C4080713046A0474FF4E0610220A047294615
S214400C500420A04740F207210820A0472946092043
S214400C60A04729460A20A04729460C20A0472946E7
S214400C700D20A04729460F20A04729461020A04710
S214400C8029461120A04729461220A047294613206E
S214400C90A047C820C04741F290211020A04740F20C
S214400CA027211120A0473220C0471B211220A047F1
S214400CB03220C0474FF488511320A04719212920DD
S214400CC0A0470D212B20A0473220C0472946302080
S214400CD0A0474FF401713120A0474FF400713220F5
S214400CE0A04707213520A04741F204413620A047BF
S214400CF040F205713720A04740F205313820A04722
S214400D0040F207713920A04740F201713C20A047CD
S214400D100E213D20A0474DF210010320A0474FF47E
S214400D2027416020A04731466120A04729466A20D7
S214400D30A04729468020A04729468120A04729462B
S214400D408220A04729468320A04729468420A047E2
S214400D5029468520A04710219020A0474FF4C06127
S214400D609220A0474FF488719520A04797E80C0042
S214400D7029462846514CA047B868514B98472946C3
S214400D802846504B984728463EE7022E7FF43BAF16
S214400D9039238DF800302C234B4C8DF801308DF8DC
S214400DA00200342369460522CB208DF803308DF8A7
S214400DB00460A047AA238DF801306946B023032279
S214400DC0CF208DF802308DF80050A047302369467A
S214400DD00122F7208DF80030A047252369460122DE
S214400DE0C0208DF800304FF01109A0476946012217
S214400DF0C1208DF80090A0475C238DF80030324625
S214400E004C236946C5208DF80130A0479423694697
S214400E100122C7208DF80030A04785234FF00108F7
S214400E208DF80030694678230322E8208DF802309A
S214400E308DF80180A04732466946EA208DF800507A
S214400E408DF80150A04748234246694636208DF823
S214400E500030A0470623424669463A208DF80030C7
S214400E60A04782238DF80130694627230422B62006
S214400E708DF800608DF802308DF803500F4EA04775
S214400E8097E80C0029462846B047B8680C4B984768
S214400E902A4669464846A0470A200C4B98472A46A9
S214400EA069462920A0476EE7910A400004000020CA
S214400EB008000020080A0020A10940002D0B400031
S214400EC0190B4000CD0B4000B5094000DD0940003D
S214400ED038B50F4B1B78012B05460DD1002108462F
S214400EE00C4B98470C4B0D4C98474FF49631284680
S214400EF0A0470139FBD138BD022BF3D1084B094A34
S214400F001B681268084C00210846A047EAE700BF65
S214400F10080A0020CD0B4000610A40002509400029
S214400F2008000020040000202D0B400010B5104B98
S214400F301B6883421AD90F4B1B688B4216D90E4B3F
S214400F401B78012B0BD189B280B20C4B98470C4BC7
S214400F5098470C4B18680C4B9847002010BD022B46
S214400F60FBD100231A46094CA047F0E7012010BDEC
S214400F700400002008000020080A0020CD0B400096
S214400F80610A40000C0A0020250940002D0B400055
S214400F902DE9FF41019204AA039042F8103D0291C8
S214400FA0134602A901AA03A81D4C1E4E1E4FDFF889
S214400FB08480A047009B019A03980299013301322E
S214400FC0121A5B1AB047BDF80810BDF80C00174B54
S214400FD09847174B9847019C039B029AE31A009C3C
S214400FE00134A41A03FB0444F025B4FBF5F515F1CF
S214400FF0FF3510D2F0230F48B4FBF3F103FB114149
S214401000B8470D4B0D4A1B68126800210846B0478A
S21440101004B0BDE8F081F0214046B847E7E700BF9E
S214401020050A40002D0B40003D094000CD0B400016
S214401030610A40000C0A002008000020040000203E
S2144010402DE9F04FDFF89C9085B080468B46571EC2
S214401050044617F8013F13B905B0BDE8F08F0A2BD8
S21440106003D10BF1100B4446F3E76FF001026243E5
S214401070142111FB032304F10A0A01932546019B20
S21440108003EB4506164B1E44A6F520720023117846
S214401090C3F107000141C80707D50BEB03012846FB
S2144010A003920293C847039A029B0133082BEED162
S2144010B0A6F27F2607230BF10F0231781941C907A4
S2144010C006D5D11A284603930292C847039B029A34
S2144010D0013B012BF1D10135AA45D0D10C34B8E7FC
S2144010E00A4F40002D0F400084B00023234A8DF85D
S2144010F004308DF805308DF806308DF808008DF8F0
S21440110009308DF80A300393039B022B0ED9002337
S2144011101A490393039B022B18D99DF805309DF876
S214401120060040EA0320000904B0704743F69923BE
S214401130116989071AD5039B04A90B4413F8083C88
S214401140DBB2D360039B01330393DDE743F6992379
S2144011500A69D2070ED58A68039B04A80344D2B214
S21440116003F80C2C039B01330393D3E7013BDFD1F9
S2144011700120D9E7013BEBD1FAE700BF00800840E9
S214401180034BD86B80F48030C0F30040704700BFFC
S214401190000E0E4010B50246044B0821102098471A
S2144011A01020034BBDE81040184700BFF113400025
S2144011B0BD1240001020014B184700BFBD12400032
S2144011C070B5094B094C064610200D469847D3206B
S2144011D0A04730609320A04728609020A04710206A
S2144011E0034BBDE870401847D7124000E910400056
S2144011F0BD124000F0B585B004AE0024104D46F850
S214401200044D28460F4B104F984722460F4B0094EC
S21440121031462846B8470E4B314628469847012364
S2144012200C4A2B600294029B934205D90A4B9020AD
S2144012309847002005B0F0BD029B01330293F2E7C9
S21440124000800840E50440003905400040420F0059
S214401250B50540009F860100E91040000901425054
S214401260704700EB01114A60704700EB01118A603D
S214401270704700EB0111CA607047016470474164D3
S2144012807047C06C7047806C7047D3060ED5930687
S214401290C0F8B0104CBFC0F8D410C0F8D0105306F9
S2144012A04CBFC0F8C010C0F8C4107047C0F8B410A7
S2144012B070470000004B18478B124000430903F567
S2144012C0001303F207735B0200F01F00012202FACC
S2144012D000F018647047430903F5001303F20773E0
S2144012E05B0200F01F00012202FA00F058647047CB
S2144012F0400900F5001000F20770400270474009B0
S21440130009307047012300F01F0003FA00F07047D1
S2144013102DE9F041164B06460F469847154B0546B5
S21440132030469847054004D1134B1B68B3B9BDE817
S214401330F081124C04F160082368BB4208D1616812
S214401340294205D0E36838469847636825EA03058E
S2144013504445E9D01034002DEED1E5E7084B1B6834
S2144013601BB13046BDE8F0411847BDE8F08100BFEC
S2144013708312400087124000CC0E0020CC0D002087
S214401380400E00202DE9F843164E3468062C894658
S214401390B446114623D8144F00265FFA86F84445D3
S2144013A010D2089AAB600134EA6044451A46C5F844
S2144013B0009069600D4B08BFCCF80080984700202D
S2144013C0BDE8F8834FEA081E07EB0E0557F80E20D7
S2144013D04A4502D16A688A42E3D00136DDE70120F9
S2144013E0BDE8F8833C0E0020CC0D0020B51240002E
S2144013F02DE9F3410B4B0F469046044698470A4B5F
S214401400054620469847094B064620469847084CCE
S214401410CDF8008002463B4631462846A04702B0FB
S214401420BDE8F081F1124000FF1240000513400075
S2144014308513400009210148014B1847000E0E4015
S214401440111340000A210148014B184700100E4076
S214401450111340000B210148014B184700120E4063
S214401460111340000C210148014B184700140E4050
S214401470111340000D210148014B184700160E403D
S214401480111340002DE9F0411A4B0C46064615460E
S21440149098474FF0FF310746174B3046984730463F
S2144014A0164B9847E0B200F01F03012199406309AC
S2144014B09B00002C03F160434FEA051203F561439D
S2144014C0AEBF04F1604400F00F000D4CC3F880102E
S2144014D0ACBF04F56144D2B2C3F88011AABFD2B201
S2144014E0225484F80023196030463946054BBDE83F
S2144014F0F0411847871240007F1240008312400098
S21440150014ED00E07B1240000F4B1A6B22F0700285
S2144015101043186340F60102996E08070CD51A6B03
S21440152022F0030242F002021A6340F60102996E6C
S214401530090705D500207047013AEDD101207047D4
S214401540013AF4D1FAE700BF00040E400E4A136A8F
S21440155028B10E4919400E4B0B431362704723F4D3
S2144015605C1323F00303090243F45C1389B243F08F
S21440157001030B431362936EDB07FCD5136A43F0FB
S2144015809B7343F48033E8E700040E40FCFFC8FE3C
S21440159002003701024B986E00F48030704700BF5F
S2144015A000040E40024B4FF000529A62704700BF54
S2144015B000040E40024B986E00F00200704700BFD9
S2144015C000040E402F2818D81F280D4A4FF001035C
S2144015D008D8916903FA00F030EA010300D01061A0
S2144015E0002070472038D2F8081103FA00F030EA9D
S2144015F00103F5D0C2F80001F2E70120704700BFB2
S21440160000040E401320014B184700BFC51540008C
S214401610436823F4702343604368090401F470214F
S214401620194341607047436823F07F4343604368F3
S21440163043EA01614160704789000844036B1AB170
S21440164043F001030363704723F00103FAE7890080
S2144016500844036B1AB143F002030363704723F058
S2144016600203FAE7042A0AD100EB81010B6B23F050
S21440167008030B630B6B43F004030B6370474AB9D4
S21440168000EB81010B6B23F008030B630B6B23F01D
S2144016900403F2E7082AF1D100EB81010B6B43F01B
S2144016A00803EAE700EB81010B6B23F0F0030B63C2
S2144016B00B6B1A430A637047431E1944B1FBF0F0A4
S2144016C0431EFE2B94BF00B24FF0FF3070475AB116
S2144016D000EB810100200B6B23F47F430B630B6B05
S2144016E043EA02220A6370474FF0FF30704710B556
S2144016F000EB8101086B80B208630C6B44EA03631D
S21440170043EA02430B6310BDAC2310B503604A683E
S2144017100B68B3FBF2F31B095C1E4FF6FE72944255
S2144017200AD803628B68436040F20223C0F8203137
S21440173050230360002010BD012010BD43699B0765
S21440174046BFC1610020012070474369DB0743BFA5
S21440175083690B7000200120704743699B0743BF95
S214401760C1F30801C1610020012070474369DB07CF
S21440177041BF8369C3F3080300200B6058BF0120B4
S2144017807047000030B5144D4388EC8800886A885E
S214401790E41A124BA4021B6894FBF3F3AC88D21AEB
S2144017A0201A2B880E4C8002246890FBF4F01B1AFB
S2144017B00C4823EAE37300689BB2834228BF034683
S2144017C00B8022EAE273084A12689BB2934228BF13
S2144017D013464B8030BD00BF440E0020600E0020F4
S2144017E05C0E00207C0E0020640E002008B5094BDD
S2144017F09847094B1A7838B12AB9084A1168084AF6
S214401800116002221A7008BD012AFCD1034A1168F1
S214401810044AF5E781114000840E0020780E00202F
S214401820700E0020740E0020024B1860024B1960A8
S214401830024B18477C0E0020640E0020F511400035
S214401840044B1A4619780029FCD11378012BFCD199
S214401850704700BF840E0020044B1A4619780129B1
S214401860FCD11378002BFCD1704700BF840E0020BB
S21440187008B50448044B9847044B9847044B01224C
S2144018801A6008BDED17400095114000B5114000A4
S2144018906C0E0020F7B504468188A58BA28A268B5D
S2144018A083890088B4F81EE0B4F81AC0521B258A13
S2144018B09202AD1B92FBF5F225896688CB1A451B32
S2144018C09B0293FBF5F31A441F4BE588022792FBD5
S2144018D0F7F21A60E389E28AA3EB0E03B4F80AE053
S2144018E09B02AEEB0C0E93FBFEF3B4F812E0AA1A82
S2144018F0A6EB0E0E920292FBFEF21344134A93FBA3
S214401900F7F31360124B188099805E80DD8001A942
S214401910104B04F124009847228CBDF804309B1AE3
S21440192005330A2B0C4A0BD8BDF80630618C5B1A7F
S21440193005330A2B04D801231360002003B0F0BD02
S214401940002313600120F9E75C0E0020600E0020A3
S214401950440E002085174000680E0020014B18609A
S214401960704700BF580E0020F7B5364B1B68002B5B
S21440197057D0354C354E2368354D01332360B0473C
S214401980002832D0334F3A6812F0FF0F11D001A929
S2144019906846314B98473148009BC380019B038182
S2144019A02F4B42881A8082885A80811C2D4B0630E5
S2144019B098472B78012B18D13B6813F0FF0F14D0B3
S2144019C02749264B0A885888121A05320A2A05D80B
S2144019D04A889988521A05320A2A06D901221A706C
S2144019E0214B1B680BB11D489847B0472268D0B1C1
S2144019F01E4B1A602B78022B13D11D4A236812689F
S214401A009B1A062B0DD9012314482B700023037014
S214401A10104B1B6813F0FF0F03D0134B1B6803B12A
S214401A20984703B0F0BD124B1A602B78DBB2022BFE
S214401A30F7D10E4922680968521A062AF1D9287049
S214401A400648E4E76C0E0020780E00208111400026
S214401A50840E0020680E0020C11140004C0E00206D
S214401A60800E002085174000580E0020740E00207F
S214401A70700E0020FEE7000007B51D4B1D4A9A4237
S214401A802AD11D4B1D4A002193422ED31C4B1D4A82
S214401A9023F07F039360EFF31083B3FA83F35B097D
S214401AA0019372B6BFF35F8F174A1849002313702D
S214401AB001980B6843F470030B60BFF34F8FBFF37E
S214401AC06F8F20B101231370BFF35F8F62B6104B48
S214401AD09847104B9847FEE70F49043A8B42D0D2BE
S214401AE052F8040F43F8040BF8E743F8041BCBE71F
S214401AF00000002094584000E8090020F80E00201E
S214401B000000400000ED00E00000002088ED00E00E
S214401B107D1D4000AD024000E809002010B52B4A6C
S214401B202B4B116B01F0030101291DD012D3022962
S214401B302BD0116B01F0700170291BBF116B1A6816
S214401B401A68C1F3021112BFCA400321B2FBF1F278
S214401B501A6010BD1F4949690C064CBF4FF400413E
S214401B604FF4FA411960E4E7116AC80101D51A49F1
S214401B70F8E71A491960116A01F07001102902D07D
S214401B802029F4D0D5E71649ECE7116AC90101D5FA
S214401B90114919E011491960116A01F070011029C4
S214401BA011D02029F4D0116B01F003010229C0D1D5
S214401BB0946A1968906AC4F30A4404FB0111C0B2DF
S214401BC0B1FBF0F1CEE706491960ECE700040E40A1
S214401BD00C00002010180E40001BB70000093D0006
S214401BE000127A000E4B98420E4B03D84FF080629C
S214401BF01A6070470C4A904201D80C4AF8E70C4AE3
S214401C00904201D80B4AF3E70B4A904201D80B4A60
S214401C10EEE70B4A904294BF4FF00422094AE7E7AA
S214401C20FF2C3101000A0E40FF59620200010004F9
S214401C30FF86930300020004FFB3C40400030004BD
S214401C40FFE0F50500050004074B1A680AB9074A85
S214401C501A601A68064910448142A6BF18601046AA
S214401C604FF0FF30704700BF880E0020F83E00203F
S214401C70FCFF01204FF0FF3070474FF400534B609D
S214401C800020704701207047002070472DE9F74F2D
S214401C906FF07F402B4F2C4E2C4D2D4CDFF8D090C4
S214401CA0DFF8D0B0B8470020B0472A4A3C211E2073
S214401CB0A847294ABE210120A84704F1280A4FF424
S214401CC07F00B04720886188DFF8AC80821C8B1C80
S214401CD002380239C847D84701A968461F4B98477B
S214401CE0009BA380019BE3806FF07F40B047208835
S214401CF06188821C8B1C023802390834C847C047AA
S214401D005445DCD11248164B984704466FF07F4046
S214401D1054B9B8472046B047124A82211420A847F3
S214401D20204603B0BDE8F08FB8470020B0470E4AC3
S214401D3064210A20A8470D4ABE210A20A84701244C
S214401D40C047EDE7D10E4000190B4000411040005F
S214401D50100000208A5640009A564000C1114000AC
S214401D6095184000C1564000D3564000E756400004
S214401D70910F4000411840005918400070B50F4E72
S214401D800F4D761BB61018BF002405D0013455F809
S214401D90043B9847A642F9D10A4E0B4D761B03F0FA
S214401DA063FDB61018BF002406D0013455F8043B36
S214401DB09847A642F9D170BD70BD00BF7458400028
S214401DC0745840007C584000745840000FB400B52A
S214401DD0074983B004AB086853F8042B8168019325
S214401DE000F03CFA03B05DF804EB04B0704700BF67
S214401DF03800002070B4860746D0541E002A41D0D2
S214401E00CAB2034602E014F1FF343BD303F8012B79
S214401E109D07F8D1032C2ED9CDB245EA05250F2CC7
S214401E2045EA054519D903F110022646103E0F2E05
S214401E3042F8105C42F80C5C42F8085C42F8045CDD
S214401E4002F11002F2D8A4F1100222F00F0204F0C0
S214401E500F041032032C13440DD91E462246043A72
S214401E60032A46F8045BFAD8221F22F00302043203
S214401E70134404F003042CB1C9B21C4403F8011BFC
S214401E809C42FBD170BC704714460346C2E700BF75
S214401E90F0B5054689B008460C4600F031F9AB6B04
S214401EA0214F04940126441C04A902220394059061
S214401EB0AC68069707960191029253B3636E13F08F
S214401EC0010FB4F90C309AB201D1900525D5910492
S214401ED006D4626E43F4005322F40052A381626635
S214401EE0284601AA214601F0BBFB636E00280CBFC2
S214401EF00A254FF0FF35DA0702D4A3899B0502D5A1
S214401F00284609B0F0BDA06D01F060FD284609B036
S214401F10F0BD284601F098F9D0E7A06D01F054FDD9
S214401F20B4F90C309AB2D2E700574000024B014653
S214401F301868FFF7ADBF00BF3800002000290CBF6F
S214401F40022200224FF4806300F000B82DE9F043EF
S214401F50614C256883B004460F4690461E4615B130
S214401F60AB6B002B64D0B8F1020F06D0B8F1010F6E
S214401F7000F29F80002EC0F29C80636ED80734D556
S214401F802146284601F008F9216B41B104F140038F
S214401F90994202D0284601F07DFA00232363B4F923
S214401FA00C300022A26162601A063AD423F44A63D7
S214401FB023F00303B8F1020FA3811DD001AB6A469C
S214401FC02146284601F004FDA3891843A081002E2F
S214401FD032D1009E304601F073FD074600286BD094
S214401FE0A38943F08003A38128E0A3899905C7D439
S214401FF0A06D01F0E9FCC3E70025616E002604F100
S214402000430243F002030120A660CE07A38122606C
S2144020102261606101D498053ED5284603B0BDE8EC
S214402020F0832169284601F035FAB4F90C30BDE753
S214402030284601F009F996E7002FCBD0AB6B002B72
S21440204033D0009BB4F90C2027609E421CBF42F45C
S2144020500062A281B8F1010F04BF42F00102A281E2
S21440206092B212F00803276166610ED0D1071AD5E6
S214402070656E7642002315F00105A661A36009D07F
S2144020800025284603B0BDE8F083A360656E15F0D2
S2144020900105F5D19305C0D4A06D01F097FC284604
S2144020A003B0BDE8F083A660F0E7284601F0CCF820
S2144020B0C7E74FF0FF35B0E7DDF80090B14504D0F4
S2144020C0484601F0FDFC074620B9B4F90C304FF005
S2144020D0FF3592E74E4683E73800002000000000B8
S2144020E000000000000000000000000000000000AB
S2144020F0000000000000000000000000000000009B
S21440210090F800F06DE9024520F007016FF0000CF2
S21440211010F0070491F820F040F049804FF000049A
S2144021206FF00700D1E9002391F840F000F1080075
S21440213082FA4CF2A4FA8CF283FA4CF3A2FA8CF3AD
S2144021404BBBD1E9022382FA4CF200F10800A4FA14
S2144021508CF283FA4CF3A2FA8CF3E3B9D1E9042368
S21440216082FA4CF200F10800A4FA8CF283FA4CF39F
S214402170A2FA8CF37BB9D1E9062301F1200182FA59
S2144021804CF200F10800A4FA8CF283FA4CF3A2FA5F
S2144021908CF3002BC6D0002A04BF04301A4612BA6D
S2144021A0B2FA82F2FDE8024500EBD2007047D1E970
S2144021B0002304F00305C4F100004FEAC50514F0FF
S2144021C0040F91F840F00CFA05F562EA05021CBFD0
S2144021D063EA050362464FF00004A9E72DE9F84F8D
S2144021E04B6E9C0493462FD59368126853B30E46A5
S2144021F0074602F1080919E920045FEA9A0817D051
S214402200043D002401E0A04510D0324655F8041F96
S214402210384601F0BBF8431C04F10104F3D1002317
S214402220CBF80830CBF80430BDE8F88FDBF8083040
S2144022302AF0030AA3EB0A03CBF8083009F1080991
S214402240002BD8D10020EAE701F00AFA0023CBF8A9
S2144022500830CBF80430BDE8F88F00BF2DE9F04FCA
S214402260ADB01D468B4690460793069018B1836BDB
S214402270002B00F0F380DBF86430BBF90C00DF077E
S21440228081B202D48E0540F1FC808C040AD4DBF87F
S214402290643040F4005123F40053ABF80C10CBF8F4
S2144022A0643089B2080740F1B380DBF81030002B69
S2144022B000F0AE8001F01A030A2B00F0B580002330
S2144022C00DF170090B93119310930393CDF83C9046
S2144022D0CA46CDF810B098F800304446FBB1252BDE
S2144022E002D11CE0252B03D014F8013F002BF9D176
S2144022F0A4EB08059DB1109B119ACAF800800133E3
S2144023002A44072BCAF80450119210937ADD002A0B
S21440231040F0B084039B10922B44CA460393237824
S214402320002B00F0E08300204FF000038DF837309C
S21440233004F1010862780546064603464FF0FF342E
S21440234008F10108A2F12001582900F2DE82DFE8F8
S21440235011F02102DC02DC022902DC02DC02DC0293
S214402360DC02DC02DC0289029502DC02A200BD022D
S214402370DC029F01A401A401A401A401A401A401BC
S214402380A401A401A401DC02DC02DC02DC02DC02C3
S214402390DC02DC02DC02DC02DC02B201DC02DC0233
S2144023A0DC02DC02DC02DC02DC02DC02DC02DC02F8
S2144023B09701DC02DC02DC02DC02DC029B01DC0270
S2144023C0DC025302DC02DC02DC02DC02DC02DC0261
S2144023D0DC02DC02DC02DC025A021B02DC02DC020B
S2144023E0DC026E021B02DC02DC027302DC02F50138
S2144023F082010902D702DC029A02DC02A700DC0254
S214402400DC022E020AF1080A039B2B44039386E75C
S2144024105946069800F0ACFD18BBBBF80C1001F00E
S2144024201A030A2B7FF44BAFBBF90E30002BFFF696
S21440243046AFDBF86430DB0705D48F0503D4DBF802
S214402440580001F0C3FA2B4642465946069800F01B
S2144024504DFD039003982DB0BDE8F08F00F0F4FEDC
S21440246009E7DBF86430D90704D4BBF80C309A058A
S21440247040F1AA844FF0FF33039303982DB0BDE894
S214402480F08FDBF8580001F09FFABBF90C0081B2E0
S214402490FBE67642079243F0040398F800204FE7A5
S2144024A008969E0600F150840799DD060A4600F11C
S2144024B0EF83580640F1EC830E8804310027012252
S2144024C007914FF000018DF837100025611C00F091
S2144024D0168123F08001029156EA070140F01481EC
S2144024E0002C40F05C83002A40F0B78313F00103D1
S2144024F0059300F057840DF1B00B30230BF8413DA7
S214402500059BA342B8BF234601930DB10133019307
S214402510029B13F00203099302D0019B02330193FE
S214402520029B13F084030A9340F01782089B019A9B
S2144025309D1A002D40F31182102D40F39084109B7D
S214402540119AC44ED6461027A2461946069C07E066
S21440255001F1020C0EF1080E0146103D102D11DD62
S214402560481C1032072811928EE8C0001090EFDD0C
S214402570002A40F0E481103D102D11464FF0010C2A
S214402580CE46EDDC54466146F2462A44072911926F
S214402590CAF80060CAF80450109100F3EC829DF827
S2144025A037500AF1080A481C002D40F0DE81099B8E
S2144025B0002B00F0F88102320EA902230728119260
S2144025C010908AE80A0040F3EA81002A40F08C83A3
S2144025D00A9B802B4FF001001146CA4640F0E78127
S2144025E0089B019D5E1B002E40F3E181102E9A4D04
S2144025F040F35084D4461027A246069C07E001F1DB
S214402600020E0CF1080C0146103E102E11DD481C3F
S2144026101032072811928CE8A0001090EFDD002AB7
S21440262040F09D82103E102E4FF0010E1146CC46D3
S214402630EDDC5446E2463244BEF1070F11928AE87A
S2144026406000CDF840E000F369830AF1080A0EF115
S21440265001007146ABE1089613F0200240F08C83EF
S21440266013F0100140F01A8313F0400200F0168376
S21440267007980A460146043106880791002720E756
S214402680089643F01003E7E7089643F0100308E780
S21440269043F0800398F8002052E6A2F1300100266D
S2144026A018F8012B06EB860601EB4606A2F1300130
S2144026B00929F5D946E60896002840F0088443F0F4
S2144026C010039E0600F14C83DD0600F1F3825806A7
S2144026D040F1F082079DB5F900602A46F7170432AC
S2144026E0304639460792002871F10002C0F25D83F9
S2144026F0611C9DF837504FF001027FF4EAAE56EA6F
S214402700070100F04D820293012A00F08C82022AD3
S21440271040F05C820B98CB46330906F00F0143EA43
S21440272007733A091E461746435C0BF8013D56EAC6
S2144027300703F1D1A9EB0B030593E1E6002840F02F
S214402740C083990600F16783DA0600F1F1805B06E4
S21440275040F1EE80079A136804320792BDF80C20C9
S2144027601A80B8E507983D4A08960B920668782284
S214402770302104308DF8392043F0020307900027BB
S2144027808DF8381002229CE60896002899D08DF8DD
S214402790375096E798F80020002D7FF4D1AD012001
S2144027A02025CDE543F0010398F80020C8E50896BB
S2144027B0002840F0938329490B919F0600F1E88258
S2144027C00798DE06014600F170825D0640F16D8294
S2144027D00431068807910027D80740F1228256EA3E
S2144027E0070100F01E8230218DF8392043F00203A5
S2144027F08DF83810022264E60896002840F06B8375
S21440280017490B91D9E7079908960A688DF848202A
S2144028104FF000000A468DF8370004320120019040
S214402820079205900DF1480B0293002470E643F0A2
S214402830400398F8002083E598F800206C2A03BFF0
S21440284098F8012043F0200308F1010843F01003F4
S21440285076E500BF345740004457400018574000C4
S2144028600457400007990E680A46002E02F10402FB
S214402870FFF60FAE079298F8002061E598F8002022
S21440288001202B255CE507990896D1F800B04FF05B
S21440289000028DF837200E1DBBF1000F00F0E582D8
S2144028A0671C00F0C482224600215846019301F07E
S2144028B0D7FB019B002800F0E582A0EB0B020592B7
S2144028C0079602939DF83750002419E698F80020A2
S2144028D02A2A08F1010700F0E982A2F1300109290D
S2144028E0B8464FF000043FF62DAD18F8012B04EB28
S2144028F0840401EB4404A2F130010929F5D921E50D
S21440290043F0200398F800201AE50896002840F087
S214402910DB82002A00F0E78001218DF848204FF046
S214402920000201918DF8372005910DF1480B7BE7A9
S214402930079A136804320792039A1A60CBE40FAAE8
S21440294004992046FFF74AFC002840F03981109948
S214402950119A01F1010CCE46FFE51099119A481CD8
S2144029609DF83750002D3FF422AE01320DF1370569
S2144029700121072811921090CAF80050CAF8041096
S21440298040F30881002A40F0BC81099B002B3FF4AD
S2144029901FAE0EAB022208461C931D92CA46014645
S2144029A00AF1080A01300A9B802B3FF419AE059BBA
S2144029B0E41A002C2EDD102CB34D1EDDD646102614
S2144029C0069FDDF810A006E0881C0EF1080E19469A
S2144029D0103C102C10DD4B1C1032072B11928EE849
S2144029E060001093F0DD002A65D1103C102C4FF0AB
S2144029F001001146CE46EEDCF246224407281192EC
S214402A00CAF80050CAF80440109000F385800AF1D6
S214402A10080A01300599CAF800B00A4407281192FE
S214402A20CAF80410109040F38280002A40F01881C3
S214402A30029B1092580735D5089B01995C1A002CCA
S214402A4040F3E780CA46102C40F3188210998F4E08
S214402A50069FDDF810B0102506E0881C0AF1080A2B
S214402A601946103C102C11DD4B1C1032072B1192CE
S214402A70CAF80060CAF804501093EEDD42BB103C22
S214402A80102C4FF001001146CA46EDDC22440728C0
S214402A901192CAF80060CAF80440109051DD002A2E
S214402AA040F09B81039B089A01998A42ACBF9B18D1
S214402AB05B1803934EE00FAA51463846FFF78EFB4D
S214402AC0002840F03F811099119A481CCE467FE777
S214402AD00FAA59463846FFF781FB60B91099119AFC
S214402AE0481CCA46BDE7119BDDF810B0002B40F0ED
S214402AF0D48100231093DBF8643013F0010FBBF849
S214402B000C3002D19A0540F1DE805B063FF5B2AC50
S214402B1003982DB0BDE8F08F002A40F00681059A54
S214402B201D9201231192CDF870B01093CA460AF157
S214402B30080A029B590704D5089B01995C1A002C89
S214402B4081DC039B089901988142ACBF5B181B1837
S214402B50039372BB00231093CA46FFF7BCBB0FAA71
S214402B6004992046FFF73AFB50BB1099119A01F1A1
S214402B70010ECC4648E5002A40F040819DF83710CB
S214402B80002900F01B8101220DF1370110461D92ED
S214402B901C91CA4601460AF1080A013007E5029B25
S214402BA0012A00F09880022A0DD1029300260027C1
S214402BB0B0E50FAA04990698FFF710FB0028C9D085
S214402BC0DDF810B097E7029300260027494600E05C
S214402BD05946F20842EA4772F80806F007030746E5
S214402BE01646303356EA070201F8013C01F1FF3B36
S214402BF0EED1029AD6077FF59DAD302B3FF49AADC5
S214402C00023930230BF8013CA9EB010305938B46B0
S214402C1076E4039B089A8A42ACBF9B185B180393E2
S214402C2098E702224DE4002F08BF0A2E52D3CB4627
S214402C30304639460A22002301F036FF30320BF880
S214402C40012D3046394600230A2201F02DFF064664
S214402C500F4656EA0703EBD16CE50594CB464FE4A6
S214402C600FAA04990698FFF7B9FA0028A8D1119A36
S214402C70CA465EE70FAA04990698FFF7AFFA0028FF
S214402C809ED1CA46FFF7C0BB445740003457400069
S214402C900431166807910122002712E4079801467E
S214402CA004310668079100270BE40E68043107914B
S214402CB0002791E507990E680A46F71704320792EF
S214402CC0304639460FE5DBF8580000F07FFEBBF88B
S214402CD00C301AE7029B02930DF1B00B30360123FD
S214402CE00BF8416D05930BE40FAA04990698FFF77D
S214402CF075FA00287FF464AF1099119A481CCA46AA
S214402D0051E60FAA04990698FFF768FA00287FF460
S214402D1057AF1099119A481CCA4648E4002A40F01A
S214402D20918001201146CA4641E60FAA04990698AA
S214402D30FFF754FA00287FF443AF1098119A0130F9
S214402D40CA4667E6D346D6E6079E073626F007020B
S214402D5002F10801D2E9006707910122FFF7B1BBF3
S214402D60079E073626F00706D6E9000106F1080258
S214402D70079206460F46B6E4079E073626F0070239
S214402D8002F10801D2E9006707910022FFF799BBDC
S214402D90079E073626F0070101F108000790D1E9A3
S214402DA0006719E5CB46FFF7ABBB2D25764267EBB0
S214402DB047078DF837500122FFF788BB099BB3B908
S214402DC011460120CA46F2E5DBF8580000F0FEFD49
S214402DD04FF0FF330393FFF750BB0FAA04990698B2
S214402DE0FFF7FCF900287FF4EBAE119AA9E60EAB8C
S214402DF002221C931D920120CA46D0E50FAA0499D0
S214402E000698FFF7EBF900287FF4DAAE1099119A8E
S214402E10481CCA46A4E5079A03991368CD17084686
S214402E20043229460792C3E90001FFF754BA5846D0
S214402E3007960293FFF764F9002405909DF83750F3
S214402E40FFF75EBB0FAA04990698FFF7C7F900285C
S214402E507FF4B6AE1099119A481CCA46A7E5109959
S214402E60119A204E0131FFF790BB062C28BF06244E
S214402E70059407960194DFF870B0D5E41098194E83
S214402E80013003E605949DF83750079602930446B2
S214402E90FFF736BB8646FFF7CEBB06980FAA5946C5
S214402EA0FFF79CF900283FF424AE24E6079998F8EB
S214402EB001200C68043144EAE474B8460791FFF7F1
S214402EC03FBA8DF837503CE48DF8375021E58DF801
S214402ED03750FFF7F4BB8DF8375091E48DF83750F4
S214402EE069E400BF345740002C5740002DE9F041BC
S214402EF00C46ADF58D6D8989666EE589199621F08B
S214402F0002010646E069ADF80C1017464FF48061A2
S214402F10626AADF80E5098461AAD0023079016A880
S214402F2009920693009504950291059100F048FD9C
S214402F3043463A4669463046FFF790F9051E07DB9A
S214402F403046694600F028F9002818BF4FF0FF3594
S214402F50BDF80C305B0603D5A38943F04003A3813C
S214402F60169800F02FFD28460DF58D6DBDE8F081D2
S214402F7038B5304B1B6805460C4613B19A6B002A91
S214402F8038D0B4F90C2093B218070CD52069A8B1F4
S214402F9013F001021ED0636900225B42A361A26067
S214402FA0F0B1002038BDD9063CD5580726D4206954
S214402FB042F00803A3819BB20028E9D103F42072B3
S214402FC0B2F5007FE4D02846214600F02FFDA389C5
S214402FD02069DDE7990758BF6269A2600028E0D102
S214402FE0B4F90C301A06DDD543F04003A3814FF008
S214402FF0FF3038BD184600F027F9C2E7216B51B1C3
S21440300004F14003994204D0284600F043FAB4F94C
S2144030100C200023236300232069636022F02402EF
S2144030202060C5E742F0400209232B604FF0FF3096
S214403030A28138BD38000020024B13B1024800F090
S21440304005B8704700000000B93240000023014632
S2144030501A46184601F000BCB1F90C309AB22DE978
S214403060F0410D46110780463AD46A6843F400633F
S214403070002AAB816FDDAC6A002C49D000229BB29F
S214403080D8F80060C8F8002013F4805267D02A6D44
S2144030905F0705D569682B6B521A0BB1EB6BD21ADA
S2144030A00023E9694046A047441C3CD0B5F90C30A3
S2144030B02A692A6023F400630022AB81DB046A603D
S2144030C047D4296BC8F8006011B305F14003994214
S2144030D002D0404600F0DEF900202863BDE8F081CB
S2144030E02E69AEB12C682E6091070CBF6B69002329
S2144030F0A41BAB600AE0234632466F6AE969404645
S214403100B8470028A4EB0004064404DD002CF2DC9B
S2144031100020BDE8F081AB8943F04003AB814FF01F
S214403120FF30BDE8F081D8F800401D2CF3D8194B8D
S214403130E340DB4313F00103EDD1B5F90C206B609F
S21440314022F400632969AB81DA042960B9D5002CE2
S214403150B7D12865B5E7EA6B002A8CDCD8E70123AF
S214403160E9694046A047431C024602D0AB89AC6A98
S2144031708EE7D8F80030002BF8D01D2B01D0162B48
S21440318002D1C8F80060C3E7AB8943F04003AB8187
S214403190BDE8F0810100402038B50D46044608B130
S2144031A0836BBBB1B5F90C0088B16B6EDB0701D4FD
S2144031B0810517D520462946FFF74EFF6B6EDA0786
S2144031C0044602D4AB899B0507D5204638BD044645
S2144031D0204638BD00F038F8E4E7A86D00F0F6FB6E
S2144031E0204638BDA86D00F0EFFBE3E7014900F04C
S2144031F0AFBB00BF4149400010B500230446818163
S214403200C2810360436083604366036143618361B8
S214403210194608225C30FEF7EDFD07480749084A84
S214403220084B2062E4616162A262E36204F15800E6
S214403230BDE8104000F0C4BB85464000A9464000AB
S214403240E54640000547400010B50446124800F0E9
S214403250BBFBA26BD2B904F53B731048C4F8E83206
S2144032600321C4F8E022E063C4F8E4126068042155
S214403270FFF7C2FF01220921A068FFF7BDFF022227
S2144032801221E068FFF7B8FF0123A3630248BDE8B8
S214403290104000F09BBB00BFDC0E0020ED3140002C
S2144032A0014800F091BB00BFF00E0020014800F03E
S2144032B08DBB00BFF00E002038B50A4C0A4D641B8B
S2144032C0A4100AD004F18043013B05EB8305013C82
S2144032D055F804399847002CF9D1BDE8384002F03B
S2144032E0CDBA00BF8C584000885840002DE9F047C2
S2144032F082B080468946144600F054FB012836D0FA
S2144033004A4604F15C0301A9404601F057FA421CC4
S214403310064625D0A8B39DF804E000250DF1040A22
S21440332009E023685A1C226083F800E00135B54264
S21440333027D215F80AE0A368013B002BA360F0DA19
S214403340A769BB4271462246404602DBBEF10A0FE1
S214403350E7D101F0DBF9431CE8D102B0BDE8F087C5
S214403360A38943F04003A38102B0BDE8F08709F18A
S214403370FF33FE2BC4D85FFA89FE06468DF804E07C
S214403380CBE7484602B0BDE8F08700BF30B5536E85
S21440339013F0010FB2F90C30144683B005469AB2CA
S2144033A001D190051CD5900406D4626E43F40053B8
S2144033B042F40052A381626628462246FFF796FFF3
S2144033C0636EDA07054602D4A3899B0502D52846D4
S2144033D003B030BDA06D00F0F9FA284603B030BD0A
S2144033E0A06D019100F0F0FAB4F90C3001999AB250
S2144033F0D9E700BFF8B5244F0C46064600F07EFFDE
S214403400BB685D68C4F57E610F3125F0030529442D
S21440341021F47F6121F00F01A1F58054B4F5805F5F
S21440342007DB0021304601F01BF9BB682B4498426D
S21440343004D0304600F068FF0020F8BD61423046B8
S21440344001F00EF901300DD0104BBA6819682D1BEB
S21440345045F001053046091B5560196000F054FFE1
S2144034600120F8BD0021304601F0FAF8BA68831A08
S2144034700F2BDEDD064C0549246843F00103001B94
S21440348053600860D5E700BFD80500208C0E0020AA
S214403490E0090020002944D02DE9F0410D46804641
S2144034A000F02CFF55F8047C694927F00103A5F18C
S2144034B00804E2188E685068B24220F003005ED0DE
S2144034C0FE0750600BD455F8087CE41B01F1080E4B
S2144034D0A56875453B446DD0E768EF60BD6015183C
S2144034E06D68ED073ED543F001026260E350B3F5E8
S2144034F0007F17D2DB08581C9A104D6851F8307080
S214403500A7600123934001EBC0022B43083AE260D8
S2144035104B6041F83040FC604046BDE8F04100F06A
S214403520F3BE70475A0A042A52D89A0902F139075C
S214403530FF0002F13805C819CA59083890424FD0E2
S214403540516821F003018B4232D292689042F7D103
S214403550C368A060E3609C60C4604046BDE8F0413C
S21440356000F0D2BE95683B4FBD42034440D0D06881
S214403570E86043F0010285606260E350B7E7FF070A
S214403580034407D455F8082CA41A1344A068E268EC
S214403590C2609060304A126843F001009342606017
S2144035A08C60B9D32D4B40461968FFF723FFB3E72D
S2144035B01046CDE711184968C90744D49168D268C7
S2144035C0CA60034443F0010091606060E350A3E7A3
S2144035D0142A16D802F15C07FF0002F15B05AAE741
S2144035E0AA1001234D6893402B434B600346B0E737
S2144035F043F001024C610C61E560A5606260E350F7
S2144036008AE7542A06D81A0B02F16F07FF0002F128
S2144036106E0590E7B2F5AA7F06D8DA0B02F1780776
S214403620FF0002F1770586E740F25450824206D802
S2144036309A0C02F17D07FF0002F17C057BE74FF410
S2144036407E777E2577E743F001016160136063E78C
S214403650D8050020E0050020E4090020BC0E00202C
S2144036609368002B73D02DE9F04F8B8983B00C46BE
S21440367019070090164626D5226922B313F0020099
S21440368035682CD04FF00009B04FC846B246B84512
S21440369043464A4628BF3B460098B8F1000F50D0F4
S2144036A0E169666AB047002858DDDAF808301B1A28
S2144036B08144A8EB0008CAF80830002BE7D1002068
S2144036C003B0BDE8F08F21460098FFF751FC002874
S2144036D040F03381A389356813F00200D2D113F04D
S2144036E0010945D14F46019637B39A05D4F808806C
S2144036F040F183804745C346C0F0AB8013F4906FDB
S21440370040F0AC802068BA465A46494600F092FDE2
S214403710A2682368A2EB08025B44A2602360019A79
S2144037209368A3EB0A03D144A7EB0A079360002BE8
S214403730C5D0A389002FD8D1D5F800906F6808353A
S214403740D2E7D5F80090D5F8048008359FE70020EA
S214403750704721460098FFF71FFD70B3B4F90C3050
S21440376043F040034FF0FF30A38103B0BDE8F08F35
S214403770814633464E46A8469A464D464EB380B39B
S214403780206823696269B145CB4628BFB346984254
S2144037905F4604D9A36813449B4500F3A68093452F
S2144037A04BDB1346676AE16900982A46B847071E0E
S2144037B0D4DDB9EB0709CCD00120DAF80830DB1BA2
S2144037C03D44F61BCAF80830002B3FF478AF002E75
S2144037D0D5D108F1080313E9600098460833002E57
S2144037E0F9D032460A21284600F03AFC002800F07C
S2144037F0A1800130A0EB0509C2E720682369984202
S21440380002D863699F425DD2B84528BFB846424653
S214403810494600F00FFDA3682268A3EB0803424424
S214403820A36022600BB1C24679E721460098FFF7B5
S214403830B3FC002892D1C24671E75A46294600F0AA
S214403840F9FCA2682368A2EB0B025B44A2602360EB
S214403850AFE72068B846BA46BB4655E76269206877
S214403860216902EB4208A0EB010A08EBD8780AF17E
S21440387001004FEA680838444045424684BF8046C7
S21440388042465B0544D51146009800F021F9834630
S214403890002855D05246216900F032FCA38923F413
S2144038A0906343F08003A3810BEB0A00A8EB0A0366
S2144038B0C4F810B0C4F814802060A360B846BA4676
S2144038C0BB4621E76FF00041B94228BF39464A4619
S2144038D091FBF3F10098666A03FB01F3E169B04798
S2144038E0B0F1000A3FF71BAF38E71A462946019366
S2144038F000F0A0FC2268019B00981A4422602146F2
S214403900FFF74AFC019B00287FF428AF1F4650E78C
S214403910009800F0FFFC83460028C5D1009D216931
S2144039202846FFF7B7FDB4F90C300C2223F080038D
S2144039302A6015E706F1010922E74FF0FF30BFE69F
S214403940009A0C231360B4F90C3009E700FCFF7FA3
S2144039502DE9F84310F538771FD0884606464FF0D5
S21440396000097D68BC68013D11D4A389012B05F18F
S214403970FF3508D9B4F90E3001332146304602D01F
S214403980C04749EA00096B1C04F16804EDD13F6862
S214403990002FE6D14846BDE8F883B9464846BDE81C
S2144039A0F88300BF044B054A1B685B6B002B08BFBF
S2144039B0134693F828017047380000206C04002016
S2144039C0704700BF704700BF704700BF704700BFDA
S2144039D070B50C46B1F90E10002990B015461E463B
S2144039E014DB01AA01F00EF800280FDB029A02F45D
S2144039F07042A2F50052B2FA82F252094FF4806346
S214403A004FF4006032602B6010B070BDA289002376
S214403A1012F08000336004D0402218462A6010B06E
S214403A2070BD4FF480632B6010B070BD8A899207DA
S214403A300B4606D501F1430201211A601A6159610D
S214403A407047F0B583B001AB6A460C460646FFF7B2
S214403A50BFFF00990546304600F03AF8B4F90C30FE
S214403A60D8B1019A154F0099F76343F08003A381BC
S214403A702060206161611AB92B43A38103B0F0BD79
S214403A803046B4F90E1000F0D1FFA0B1A38923F060
S214403A90030343F001031BB2EEE79A05EED423F08E
S214403AA0030304F1430243F002030121A381226091
S214403AB022616161E2E7B4F90C30DDE7ED314000A8
S214403AC0024B0146186800F003B800BF38000020DB
S214403AD02DE9F04F01F10B06162E83B0054640F255
S214403AE09E8036F0070600F1BD80B14200F2BA80F3
S214403AF000F004FCB6F5FC7FC0F09382730A00F039
S214403B00B880042B00F27981B30903F1390003F140
S214403B10380EC300BF4F3B44A3F108015C68A14286
S214403B2006D10CE0002A80F2AA80E468A14206D0C2
S214403B30636823F003039A1B0F2AF3DD70463C6943
S214403B40DFF8E4E2744500F0AB81636823F00303DA
S214403B509A1B0F2A00F39081002AC7F814E0C7F892
S214403B6010E080F29D80B3F5007F80F06181DB0835
S214403B7003F1010C99107A6857F83C80C4F8088025
S214403B8001238B4007EBCC0113430839E1607B608F
S214403B9047F83C40C8F80C408210012494409C42B0
S214403BA000F28B801C4206D120F0030064001C42C9
S214403BB000F10400FAD007EBC009CC468046DCF89A
S214403BC00C309C4507D16DE1002A80F27B81DB6892
S214403BD09C4500F06781596821F003018A1B0F2A33
S214403BE0F2DDD3F80CC0D3F8088000939C19284621
S214403BF046F0010642F001055E60C8F80CC0CCF8FD
S214403C0008807C613C61C4F80CE0C4F808E065605C
S214403C105A5000F079FB009B03F108041EE010297F
S214403C2020D800F06BFB102618230220794F3B4427
S214403C30A3F108025C68944200F03D816368E16845
S214403C40A66823F00303234428465A68F16042F0EE
S214403C5001028E605A6000F057FB0834204603B0DD
S214403C60BDE8F08F00240C2320462B6003B0BDE84F
S214403C70F08F40204FF400734FF03F0E4AE7234446
S214403C80E1685A68A66842F00102F16028468E60F4
S214403C905A6000F039FB0834204603B0BDE8F08F88
S214403CA0234428465A6842F001025A6000F02CFB32
S214403CB00834204603B0BDE8F08FBC68636823F044
S214403CC00308B04504D3A8EB06030F2B00F385800A
S214403CD0DFF85891504BD9F800201B680132334426
S214403CE004EB080A00F0558103F580530F3323F4A4
S214403CF07F6B2BF00F0B5946284600F0B1FC411C59
S214403D00024600F0FC80824500F2F780434B19687B
S214403D105944196000F04D81D9F8000001301BBFAE
S214403D20A2EB0A0A5144C9F80020196012F00701B4
S214403D3000F01581C1F10800C1F5805102440831F8
S214403D4002EB0B09C9F30B09A1EB090949462846C2
S214403D500193009200F084FC431C9DE80C0000F0A8
S214403D604381801A484440F001001968BA604944CB
S214403D70BC425060196017D0B8F10F0F40F2FB807C
S214403D806068A8F10C0222F0070204EB020E00F075
S214403D9001004FF0050C10430F2A6060CEF804C0B7
S214403DA0CEF808C000F217811D4BBC681A689142D5
S214403DB088BF19601B4B1A689142626888BF1960B9
S214403DC022F003029642A2EB060301D80F2B04DC36
S214403DD0284600F099FA002440E7A21943F0010370
S214403DE046F0010666602846BA60536000F08CFADA
S214403DF00834204603B0BDE8F08F142B71D9542BFD
S214403E0000F2A380330B03F16F0003F16E0EC30084
S214403E1080E600BFD8050020BC0E00208C0E002097
S214403E20B40E0020B80E0020E0050020E009002077
S214403E305A0A042A5BD9142A00F2AE8002F15C01C9
S214403E40C9005B3207EB010C7958ACF1080C8C4585
S214403E5000F088804A6822F00302934273D2896851
S214403E608C45F7D1DCF80C207B68E260C4F808C0CB
S214403E709460CCF80C408FE6A11946F0010C42F055
S214403E800106C4F804C0284679613961C1F80CE0DF
S214403E90C1F808E04E60E25000F036FA0834DDE63D
S214403EA07B6879E608F1010818F0030F0CF1080C5E
S214403EB07FF485AE2DE0DC68A34208BF02303FF4B5
S214403EC03EAEBBE619441C464A68DB6854F8086FA9
S214403ED042F001024A602846F3609E6000F014FA01
S214403EE0BCE603F15C0003F15B0EC30012E69A09E0
S214403EF002F13901C9003832A4E7BC4254D0BC684C
S214403F00626822F003025DE759F80839994540F0A7
S214403F10868010F0030F00F1FF30F5D17B6823EA6E
S214403F2004037B6064009C423FF6C7AE002C3FF41F
S214403F30C4AE1C4240467FF43EAE64001C4200F1D4
S214403F400400FAD037E68C468CE7B3F5AA7F15D83E
S214403F50F30B03F1780003F1770EC300DAE54FF474
S214403F608051EDE67B689210012101FA02F213437C
S214403F707B60624679E70123536029E740F254525A
S214403F80934222D8B30C03F17D0003F17C0EC300AC
S214403F90C0E503F1100BAEE6542A29D81A0B02F1FD
S214403FA06F01C9006E324DE7204B196859441960BD
S214403FB0B2E6CAF30B0000287FF4AEAE08EB0B0364
S214403FC0BA6843F001035360EEE67F204FF47E73F9
S214403FD04FF07E0E9EE504F1080128460093FFF759
S214403FE059FA009B1968DFE601204FF00009BCE64D
S214403FF0B2F5AA7F05D8DA0B02F17801C90077320C
S21440400020E740F254518A4205D89A0C02F17D01CD
S214404010C9007C3216E74FF47E717E2212E77B6839
S21440402080E7F00806F1080300E600BF8C0E00208B
S21440403082B049B15AB16BB113780B601278101C3C
S21440404018BF012002B0704701A9002AF3D11046DC
S21440405002B070476FF00100F4E700BF00000000B8
S21440406001F0FF01102A2BDB10F0070F08D010F8E4
S214404070013B013A8B422DD010F0070F42B3F6D1E8
S214404080F0B441EA012141EA014122F007047FF001
S21440409000070023F0E80256083C85EA010586EA58
S2144040A0010685FA47F5A3FA87F586FA47F6A5FA94
S2144040B087F68EB9EED1F0BC01F0FF0102F00702A0
S2144040C032B110F8013B013A83EA010313B1F8D14B
S2144040D00020704701387047002D06BF354603382C
S2144040E0073815F0010F07D1013015F4807F02BF65
S2144040F0013015F4C03F0130F0BC0138704700BFB6
S214404100844641EA000313F003036DD1403A41D39D
S21440411051F8043B40F8043B51F8043B40F8043B5C
S21440412051F8043B40F8043B51F8043B40F8043B4C
S21440413051F8043B40F8043B51F8043B40F8043B3C
S21440414051F8043B40F8043B51F8043B40F8043B2C
S21440415051F8043B40F8043B51F8043B40F8043B1C
S21440416051F8043B40F8043B51F8043B40F8043B0C
S21440417051F8043B40F8043B51F8043B40F8043BFC
S21440418051F8043B40F8043B51F8043B40F8043BEC
S214404190403ABDD2303211D351F8043B40F8043B8C
S2144041A051F8043B40F8043B51F8043B40F8043BCC
S2144041B051F8043B40F8043B103AEDD20C3205D39C
S2144041C051F8043B40F8043B043AF9D2043208D094
S2144041D0D2071CBF11F8013B00F8013B01D30B8806
S2144041E003806046704700BF082A13D38B078DD0E4
S2144041F010F003038AD0C3F10403D21ADB071CBFB6
S21440420011F8013B00F8013B80D331F8023B20F81F
S214404210023B7BE7043AD9D3013A11F8013B00F858
S214404220013BF9D20B7803704B7843708B788370E0
S214404230604670478842F0B50DD98B1898420AD22E
S2144042408418002A51D0224613F8014D02F8014D39
S2144042509942F9D1F0BD0F2A48D941EA00039B079D
S21440426046D100F1100401F11003154653F8106CC6
S21440427044F8106C53F80C6C44F80C6C53F8086C0B
S21440428044F8086C103D53F8046C44F8046C0F2D49
S21440429003F1100304F11004E8D8A2F1100323F050
S2144042A00F0302F00F0E1033BEF1030F1944034400
S2144042B021D91E1F0D467446043C55F8047B46F82B
S2144042C0047F032CF8D8AEF1040424F0030404342D
S2144042D02144234402F0030262B1013B0A4411F830
S2144042E0014B03F8014F8A42F9D1F0BD0346F3E78C
S2144042F00346F2E7F0BD7246EEE700BF0148FFF71F
S21440430063BB00BFE00E00200148FFF75FBB00BF65
S214404310E00E0020002900F095802DE9F04F0D4674
S214404320164683B0804606F10B07FFF7E7FF55F8C1
S21440433004EC162F2EF00304A5F108093CD81022F1
S2144043401746BE423DD8944243DAC44B996809EBBF
S2144043500400884200F0B480436823F00101014421
S2144043604968C9074CD51EF0010F00F09B803146C6
S2144043704046FFF7ADFB064600283AD055F8043CC9
S21440438023F001034B44A0F108029A4200F0218139
S214404390221F242A00F20781132A00F2DB800346FC
S2144043A02A46116819605168596092689A60294691
S2144043B04046FFF76FF81CE027F00707002F3A4605
S2144043C0BFDA00260C233046C8F8003003B0BDE8FC
S2144043D0F08F2E46E31B0F2B1ED8D9F8043003F07F
S2144043E0010323434C44C9F80430636843F0010397
S2144043F063604046FFF788FF304603B0BDE8F08F65
S21440440023F00303E11891421FDBC36882682E46FF
S214404410D3600C469A60DDE7D9F8042009EB070123
S21440442002F001024C4443F001031743C9F80470FC
S2144044304B60636843F00103083163604046FFF712
S21440444029F8D6E71146FFF743BB1EF0010F8ED181
S21440445055F8081CA9EB010ADAF8041021F003010C
S2144044600B442344934225DBC26881685646CA60A3
S2144044709160DAF80C1056F8080F221F242AC16003
S214404480886000F29480132A6FD92968CAF8081009
S2144044906968CAF80C101B2A00F2A28008350AF197
S2144044A0100263E055F8083CA9EB030ADAF804105A
S2144044B021F0030163189342FFF659AF5646D8E7FA
S2144044C0416821F0030BA34407F11000834556DAF8
S2144044D01EF0010F7FF44BAF55F8081CA9EB010AFC
S2144044E0DAF8041021F003018B445845E2DC5646C6
S2144044F0DAF80C1056F8080F221F242AC16088608C
S21440450000F28F80132A40F28A802968CAF8081081
S2144045106968CAF80C101B2A00F28A8008350AF12E
S21440452010022968116069685160A96891600AEBB9
S2144045300701ABEB070242F0010299604A60DAF8E5
S214404540043003F001031F434046CAF80470FFF7E7
S214404550DBFE51E72B6803606B6843601B2A2DD84F
S21440456000F1080305F108021BE73246296811608E
S21440457069685160A96891601C46D1462AE709EBF4
S2144045800701ABEB070B4BF0010299604A6055F808
S214404590043C03F001031F43404645F8047CFFF704
S2144045A0B3FE2E4628E72946FFF744FEFFE6294697
S2144045B030461C46D146FFF73DFE0BE7AB688360AE
S2144045C0EB68C360242A17D000F1100305F11002EF
S2144045D0E7E650F8043C23F003031C442E46F9E675
S2144045E0A968CAF81010E968CAF81410242A0CD032
S2144045F010350AF11802B9E72B6903616B6943610C
S21440460005F1180200F11803CBE62A69CAF818200B
S2144046106A69CAF81C2018350AF12002A6E7324615
S2144046207FE7294630460193FFF704FE019B7EE76D
S214404630A968CAF81010E968CAF81410242A03D0EA
S21440464010350AF118026CE72A69CAF818206A6918
S214404650CAF81C2018350AF1200262E7D805002067
S21440466038B5074C0023054608462360FDF7ECFAAC
S214404670431C00D038BD2368002BFBD02B6038BDD0
S214404680F40E002010B50C46B1F90E1000F0F6F905
S214404690002803DB236D0344236510BDA38923F460
S2144046A08053A38110BD00BF2DE9F0411646B1F9F5
S2144046B00C201F46D3050C46054607D5002202238C
S2144046C0B1F90E1000F0C4F9B4F90C20B4F90E108C
S2144046D022F48052A2813B4632462846BDE8F0414D
S2144046E000F0A4B810B50C46B1F90E1000F0B0F9C1
S2144046F0A389421C0EBF23F4805343F480532065A5
S214404700A38110BDB1F90E1000F008B9F8B50D46FA
S2144047101446064610B1836B002B4BD0B4F90C20E0
S214404720A369A36091B2080739D52369002B36D018
S214404730EDB289042F4615D522686169D31A8B429B
S2144047401CDA0133A168501C0139A1602060157045
S21440475062699A421AD0A389DB0701D50A2D15D083
S2144047603846F8BD616E42F4005221F40051A281F1
S214404770226861666169D31A8B42E2DB2146304685
S214404780FEF70AFD40B922680123DBE721463046A2
S214404790FEF702FD0028E3D04FF0FF37E0E7214662
S2144047A03046FEF7E5FB0028F6D1B4F90C20236925
S2144047B091B2BDE7FEF748FDB0E700BFF0B506464C
S2144047C085B01F4689B1104C104D2468646B002C90
S2144047D008BF2C46D4F8E040A047431C03D1002233
S2144047E08A233A60336005B0F0BD0C460649074A56
S2144047F00968496B002908BF11462246D1F8E040B7
S21440480001A9A047E9E700BF380000206C0400205B
S21440481021B1FF2A04D80A70012070470846704725
S2144048208A2303604FF0FF30704700BF70B50D46D7
S214404830084C114606461A46284600232360FBF7D6
S214404840EBFE431C00D070BD2368002BFBD03360CA
S21440485070BD00BFF40E00202DE9F8432C4D0646EF
S214404860286898460F469146FFF7AEF8294B1C68D5
S214404870D4F84831002B3ED05A681F2A1CDC02F17F
S214404880010E76B103EB82010124C1F88890D3F87B
S214404890880194402043022EC3F88801C1F808815D
S2144048A023D00232C3F804E0286843F82270FFF7AA
S2144048B08DF80020BDE8F883174B0BB34FF4C87053
S2144048C0FFF7FEF80346D8B1D4F84821026000212D
S2144048D041600A46C4F848014FF0010EC0F88811FE
S2144048E0C0F88C11002EDCD0CCE7D3F88C110C43EA
S2144048F0C3F88C41D5E704F5A673C4F84831BBE746
S2144049002868FFF763F84FF0FF30BDE8F88300BF34
S21440491068040020FC564000C13A400038B5074CB9
S2144049200023054608462360FDF7A4F9431C00D043
S21440493038BD2368002BFBD02B6038BDF40E00201A
S21440494070B559B105460C4610B1836B002B3CD070
S214404950636ED80705D5B4F90C302BB9002630461F
S21440496070BDA38999053CD521462846FEF774FBC1
S214404970E36A064633B1E169284698470028B8BF3F
S2144049804FF0FF36A3891A0622D4216B41B104F1B9
S2144049904003994202D02846FEF77CFD002323635D
S2144049A0616C21B12846FEF775FD00236364FEF76F
S2144049B077FC636E0022DB07A2810ED5A06DFFF761
S2144049C001F8FEF773FC304670BDFEF73DFCBFE7CE
S2144049D021692846FEF75EFDD7E7A06DFEF7F6FF95
S2144049E0ECE7A06DFEF7F0FFB4F90C30002BBBD11E
S2144049F0666E16F00106B1D1A06DFEF7E7FF3046B1
S214404A0070BD00BF38B50B46074C054611461846E4
S214404A1000232360FDF731F9431C00D038BD2368DE
S214404A20002BFBD02B6038BDF40E002038B5074C69
S214404A300023054608462360FDF724F9431C00D0B2
S214404A4038BD2368002BFBD02B6038BDF40E002009
S214404A5070B50D46084C114606461A4628460023B1
S214404A602360FDF711F9431C00D070BD2368002B6E
S214404A70FBD0336070BD00BFF40E002070B50D460D
S214404A80084C114606461A46284600232360FBF784
S214404A90A3FD431C00D070BD2368002BFBD03360C1
S214404AA070BD00BFF40E002053B94AB9002908BFB4
S214404AB000281CBF4FF0FF314FF0FF3000F07AB9AE
S214404AC0ADF1080C6DE904CE00F006F8DDF804E020
S214404AD0DDE9022304B070472DE9F0478C460D46C9
S214404AE00446089E002B51D18A4217466DD9B2FA29
S214404AF082FEBEF1000F0BD0CEF1200C01FA0EF56F
S214404B0020FA0CFC02FA0EF74CEA050C00FA0EF4FA
S214404B104FEA174A250CBCFBFAF81FFA87F90AFB3E
S214404B2018CC45EA0C4508FB09F3AB420AD9ED1907
S214404B3008F1FF3280F02381AB4240F22081A8F199
S214404B4002083D44ED1AA4B2B5FBFAF00AFB105534
S214404B5044EA054400FB09F9A14509D9E41900F1E6
S214404B60FF3380F00A81A14540F2078102383C4479
S214404B70A4EB090440EA08400021002E61D024FA44
S214404B800EF4002334607360BDE8F0878B4207D98B
S214404B90002E54D0002186E821000846BDE8F08764
S214404BA0B3FA83F1002940F08E80AB4202D38242B2
S214404BB000F2FA80841A65EB03050120AC46002E0D
S214404BC03FD086E81010BDE8F08712B90127B7FB42
S214404BD0F2F7B7FA87FEBEF1000F34D1EB1B3A0C62
S214404BE01FFA87FC0121B3FBF2F8250C02FB1833B1
S214404BF045EA03450CFB08F3AB4207D9ED1908F12B
S214404C00FF3002D2AB4200F2D1808046ED1AA3B20A
S214404C10B5FBF2F002FB105543EA05440CFB00FCE2
S214404C20A44507D9E41900F1FF3302D2A44500F2A7
S214404C30B8801846A4EB0C0440EA08409DE731468D
S214404C403046BDE8F087CEF1200405FA0EF307FAA9
S214404C500EF720FA04F83A0C25FA04F448EA03085A
S214404C60B4FBF2F14FEA184502FB11441FFA87FCE9
S214404C7045EA044501FB0CF3AB4200FA0EF409D9B1
S214404C80ED1901F1FF3080F08A80AB4240F2878018
S214404C9002393D44EB1A1FFA88F5B3FBF2F002FBEB
S214404CA0103345EA034500FB0CF3AB4207D9ED1938
S214404CB000F1FF386FD2AB426DD902383D44EB1A53
S214404CC040EA01418FE7C1F1200722FA07F88B40FE
S214404CD005FA01F448EA030320FA07FE4FEA134CAC
S214404CE0FD404EEA040EB5FBFCF94FEA1E440CFBB1
S214404CF019551FFA83F844EA054509FB08F4AC4207
S214404D0002FA01F200FA01FA08D9ED1809F1FF306B
S214404D1043D2AC4241D9A9F102091D442D1B1FFACA
S214404D208EFEB5FBFCF00CFB10554EEA054400FB2E
S214404D3008F8A04507D9E41800F1FF3529D2A04568
S214404D4027D902381C4440EA0940A4EB0804A0FBDB
S214404D5002894C45C6464D4615D312D056B1BAEBDD
S214404D600E0364EB050404FA07F7CB401F43CC4020
S214404D70376074600021BDE8F0871846F8E6904634
S214404D80E0E6C245EAD2B8EB020E69EB030501380D
S214404D90E4E72846D7E7404691E78146BEE7014626
S214404DA078E702383C4445E7084608E7A8F1020899
S214404DB03D442BE7704700BF50656E206D6F7665AB
S214404DC064206174202020202028253033752C2034
S214404DD025303375290A0D0050656E207072657354
S214404DE073656420617420202028253033752C207C
S214404DF025303375290A0D0050656E2072656C6546
S214404E0061736564206174202028253033752C201A
S214404E1025303375290A0D002D2D205350495F54F7
S214404E206F75636873637265656E204578616D70F3
S214404E306C65202D2D0D0A2D2D2053414D34452DCA
S214404E40454B202D2D0D0A2D2D20436F6D70696C1E
S214404E5065643A204D617920313320323031392033
S214404E6031393A35303A3534202D2D0D00436F6EAA
S214404E706669677572652073797374656D207469A9
S214404E80636B20746F2067657420316D732074697E
S214404E90636B20706572696F642E0D0043616C69A8
S214404EA062726174696F6E2073756363657373664F
S214404EB0756C20210D0043616C6962726174696F84
S214404EC06E206661696C65643B206572726F722005
S214404ED064656C746120697320746F6F20626967C3
S214404EE0202120506C65617365207265747279204C
S214404EF063616C6962726174696F6E2070726F6311
S214404F0065647572652E2E2E0D00000000000000B0
S214404F10000000000000000000000000000000004C
S214404F20000000000000FFCCFFCC000000000000A6
S214404F30000000000000F000F00000000000F0005C
S214404F40F000000000000CC00CC0FFFCFFFC0CC0D2
S214404F500CC0FFFCFFFC0CC00CC00C601E703F3049
S214404F603330FFFCFFFC333033F039E018C06000CC
S214404F70F00CF03C60F003C00F003C18F03CC03C26
S214404F8000183CF07FF8C31CC78CCFCCDCEC78789C
S214404F90303000FC00CC0000000000004400EC0074
S214404FA0F8007000000000000000000000000FC085
S214404FB03FF078786018C00CC00C0000000000007D
S214404FC00000C00CC00C601878783FF00FC000009E
S214404FD000000C600EE007C003803FF83FF80380F7
S214404FE007C00EE00C6003000300030003003FF020
S214404FF03FF00300030003000300004400EC00F809
S21440500000700000000000000000000000000300E8
S2144050100300030003000300030003000300030033
S21440502003000018003C003C001800000000000090
S2144050300000000000000000000C003C00F003C030
S2144050400F003C00F000C00000003FF07FF8E0FC9E
S214405050C1CCC38CC70CCE0CFC1C7FF83FF00000C4
S2144050600000300C700CFFFCFFFC000C000C000035
S2144050700000300C701CE03CC07CC0ECC1CCC38C43
S214405080E70C7E0C3C0C30307038E01CC00CC00C7A
S214405090C30CC30CE31C7FF83CF003C007C00EC033
S2144050A01CC038C070C0FFFCFFFC00C000C0FC3015
S2144050B0FC38CC1CCC0CCC0CCC0CCC0CCE1CC7F886
S2144050C0C3F03FF07FF8E31CC30CC30CC30CC30C07
S2144050D0E39C71F830F0C000C000C000C000C3FCC4
S2144050E0C7FCCE00DC00F800F0003CF07FF8E79C00
S2144050F0C30CC30CC30CC30CE79C7FF83CF03C00CD
S2144051007E00E70CC30CC31CC338C370E7E07FC007
S2144051103F8000000000000018603CF03CF0186043
S21440512000000000000000000000000018443CECB6
S2144051303CF81870000000000000000003000780E4
S2144051400FC01CE038707038E01CC00C00000CC06B
S2144051500CC00CC00CC00CC00CC00CC00CC00CC0AA
S2144051600CC00000C00CE01C703838701CE00FC04B
S21440517007800300000030007000E000C000C1EC73
S214405180C3ECC300E6007E003C0030F071F8E39CC0
S214405190C30CC3FCC3FCC00CE01C7FF83FF03FFCD4
S2144051A07FFCE0C0C0C0C0C0C0C0C0C0E0C07FFC84
S2144051B03FFCFFFCFFFCC30CC30CC30CC30CC30C6E
S2144051C0E79C7FF83CF03FF07FF8E01CC00CC00C3A
S2144051D0C00CC00CE01C70383030FFFCFFFCC00C2C
S2144051E0C00CC00CC00CC00CE01C7FF83FF0FFFCAD
S2144051F0FFFCC30CC30CC30CC30CC30CC30CC00CC9
S214405200C00CFFFCFFFCC300C300C300C300C300C8
S214405210C300C000C0003FF07FF8E01CC00CC00CCC
S214405220C30CC30CE31C73F833F0FFFCFFFC030015
S21440523003000300030003000300FFFCFFFC000024
S2144052400000C00CC00CFFFCFFFCC00CC00C0000F3
S214405250000000300038C01CC00CC00CC01CFFF85A
S214405260FFF0C000C000FFFCFFFC078007800FC0B7
S2144052701CE038707038E01CC00CFFFCFFFC000CD3
S214405280000C000C000C000C000C000C000CFFFC8A
S214405290FFFC700038001F001F0038007000FFFC45
S2144052A0FFFCFFFCFFFC1C000E000700038001C053
S2144052B000E0FFFCFFFC3FF07FF8E01CC00CC00C99
S2144052C0C00CC00CE01C7FF83FF0FFFCFFFCC300A6
S2144052D0C300C300C300C300E7007E003C003FF0AD
S2144052E07FF8E01CC00CC0CCC0ECC07CE0387FFC33
S2144052F03FECFFFCFFFCC300C380C380C3C0C3C0F9
S214405300E7707E3C3C1C3C187E1CE70CC30CC30C70
S214405310C30CC30CC39CE1F860F0C000C000C000E2
S214405320C000FFFCFFFCC000C000C000C000FFF093
S214405330FFF8001C000C000C000C000C001CFFF8D2
S214405340FFF0FFC0FFE000700038001C001C003873
S2144053500070FFE0FFC0FFF0FFF8001C003C00F8C4
S21440536000F8003C001CFFF8FFF0F03CF87C1CE026
S2144053700FC0078007800FC01CE0F87CF03CFC00A4
S214405380FE000700038001FC01FC03800700FE00CE
S214405390FC00C03CC07CC0ECC1CCC38CC70CCE0C5F
S2144053A0DC0CF80CF00C00000000FFFCFFFCC00C0E
S2144053B0C00CC00C000000000000300030000C00A4
S2144053C00C000300030000C000C0003000300000A6
S2144053D00000C00CC00CC00CFFFCFFFC000000002E
S2144053E000000C001C0038007000E000E000700078
S2144053F038001C000C00000C000C000C000C000CCC
S214405400000C000C000C000C000C00000000C0005B
S214405410E000700038001800000000000000003077
S21440542006780EFC0CCC0CCC0CCC0CCC0ECC07FC72
S21440543003F8FFFCFFFC030C030C030C030C030CEB
S214405440039C01F800F003F007F80E1C0C0C0C0C43
S2144054500C0C0C0C0E1C0738033000F001F8039CB3
S214405460030C030C030C030C030CFFFCFFFC03F0C3
S21440547007F80EDC0CCC0CCC0CCC0CCC0EDC07D8D5
S2144054800390000003003FFC7FFCE300E300700055
S2144054903000000000000318079C0FCC0CCC0CCC4E
S2144054A00CCC0CCC0CDC0FF807F0FFFCFFFC030028
S2144054B0030003000300038001FC00FC0000000022
S2144054C00000000000001BFC1BFC00000000000069
S2144054D00000000000300038001C000C000C001CCF
S2144054E0CFF8CFF000000000FFFCFFFC00E001E03A
S2144054F003F007380E1C0C0C000000000000C00C27
S214405500C00CFFFCFFFC000C000C000000000FFC71
S2144055100FFC0E00070003C003C007000E000FFC80
S2144055200FFC0FFC0FFC030007000E000C000C00E5
S2144055300E0007FC03FC03F007F80E1C0C0C0C0CCA
S2144055400C0C0C0C0E1C07F803F00FFC0FFC0CC0E8
S2144055500CC00CC00CC00CC00FC00780030003007A
S21440556007800FC00CC00CC00CC00CC00CC00FFC99
S2144055700FFC0FFC0FFC038007000E000C000C0015
S2144055800E00070003000318079C0FCC0CCC0CCC75
S2144055900CCC0CCC0CFC0E78063000000C000C003A
S2144055A0FFF0FFF80C1C0C1C0C380C3000000FF001
S2144055B00FF8001C000C000C000C000C001C0FF830
S2144055C00FF00FC00FE000700038001C001C0038C1
S2144055D000700FE00FC00FF00FF8001C001C00F822
S2144055E000F8001C001C0FF80FF00C0C0E1C0738BF
S2144055F003F001E001E003F007380E1C0C0C0C0031
S2144056000E00070C039C01F801F0038007000E0013
S2144056100C000C0C0C1C0C3C0C7C0CEC0DCC0F8CBD
S2144056200F0C0E0C0C0C0000030007803FF07CF8BB
S214405630E01CC00CC00CC00C0000030C030C3FFC6C
S2144056407FFCE30CC30CC00CE00C700C300C00006C
S214405650C00CC00CC00CE01C7CF83FF00780030078
S2144056600000C000C000C000C000C000C000C000B5
S214405670C000C000C000FFFCFFFCFFFCFFFCFFFCBE
S214405680FFFCFFFCFFFCFFFCFFFC4C434420636137
S2144056906C6962726174696F6E00546F75636820DE
S2144056A074686520646F747320746F0A63616C69F4
S2144056B06272617465207468652073637265656E96
S2144056C00043616C6962726174696F6E20646F6ECC
S2144056D0652E0043616C6962726174696F6E206604
S2144056E061696C65642100506C65617365207472F5
S2144056F07920616761696E2E2E2E000040000020E2
S2144057000A000000303132333435363738394142BA
S2144057104344454600000000303132333435363796
S214405720383961626364656600000000286E756CF7
S2144057306C2900002020202020202020202020200F
S2144057402020202030303030303030303030303054
S2144057503030303043000000504F5349580000006E
S2144057602E00000000202020202020202020282856
S21440577028282820202020202020202020202020CC
S214405780202020202088101010101010101010100C
S214405790101010101004040404040404040404103C
S2144057A010101010101041414141414101010101CA
S2144057B00101010101010101010101010101010194
S2144057C010101010101042424242424202020202A0
S2144057D00202020202020202020202020202020264
S2144057E01010101020000000000000000000000014
S2144057F00000000000000000000000000000000064
S2144058000000000000000000000000000000000053
S2144058100000000000000000000000000000000043
S2144058200000000000000000000000000000000033
S2144058300000000000000000000000000000000023
S2144058400000000000000000000000000000000013
S2144058500000000000000000000000000000000003
S2144058600000000000000000F8B500BFF8BC08BC0F
S2144058709E467047393040001D014000F8B500BFD5
S210405880F8BC08BC9E467047F90040008B
S20C40588C4CF2FF7F0100000012
S21440589401000000F00000004001000000093D0047
S2144058A41800180000000000D8001800000000008F
S2144058B4D800D800000000001800D80000000000FF
