:020000040040BA
:1000000048350020B1094000AD094000AD0940006D
:10001000AD094000AD094000AD09400000000000FE
:10002000000000000000000000000000AD094000DA
:10003000AD09400000000000AD094000AD094000DE
:10004000AD094000AD094000AD094000AD094000D8
:10005000AD094000AD094000AD094000AD094000C8
:10006000AD094000CD014000E1014000F501400034
:10007000090240001D024000AD094000AD094000EA
:10008000AD094000AD094000AD094000AD09400098
:10009000AD094000AD094000AD094000AD09400088
:1000A000AD094000AD094000AD094000AD09400078
:1000B000AD094000AD094000AD094000AD09400068
:1000C000AD094000AD094000AD094000AD09400058
:1000D000AD094000AD094000AD094000AD09400048
:1000E000AD094000AD094000AD094000AD09400038
:1000F000AD094000AD09400010B5054C237833B977
:10010000044B13B10448AFF300800123237010BDEA
:100110003C04002000000000CC0E40000C4B43B11A
:100120000C480D4910B5AFF300800C48036823B9A3
:1001300010BD0A48036833B97047094B002BF7D04C
:10014000BDE810401847064B002BF5D0184700BFFC
:1001500000000000CC0E400040040020CC0E400007
:10016000000000002DE9F84381460F46124B9847E6
:1001700005464846114B9847054013D0104C04F1F2
:10018000600603E0B4420DD010345DB12068B8427F
:10019000F8D161682942F5D0E3689847636825EA99
:1001A0000305EFE7074B1B6823B1074B1B680BB137
:1001B00048469847BDE8F8839504400099044000FC
:1001C00058040020D0040020C804002008B50921EC
:1001D0000148024B984708BD000E0E4065014000E3
:1001E00008B50A210148024B984708BD00100E408F
:1001F0006501400008B50B210148024B984708BD36
:1002000000120E406501400008B50C210148024B68
:10021000984708BD00140E406501400008B50D2147
:100220000148024B984708BD00160E40650140008A
:100230002A4B99424AD8A3F57A5399422CD910B443
:10024000274CA4FB0234A40B043C264B0B449B001C
:10025000B2FBF3F2043AFF2C3AD9002101316408D1
:10026000FF2C0ED90729F9D113029BB2090401F41E
:10027000E0210B43E4B22343036100205DF8044B0B
:100280007047FF2AF0D90629EED801315208FF2A1B
:10029000EAD90629F9D9E7E74900B2FBF1F2043AB5
:1002A000FF2A11D9002301335208FF2A01D9072B55
:1002B000F9D1110289B21B0403F4E0230B43D2B23B
:1002C0001A430261002070470023F2E701207047C3
:1002D000FF2A88BF0021D8D80021C5E7801A060070
:1002E000F11976050012FD3F38B504460D464FF072
:1002F000FF338362036A80230360036B0823036078
:1003000020230360042303600A684968054B98476B
:10031000012814BF002001206B7A012B04BF402369
:10032000236038BD310240000A4659B103780129E3
:10033000C4BF417841EA0323022A04DD827842EAFD
:10034000032300E00023184670470000F8B5CC688E
:10035000002C4FD00B4605468E68002068604A6826
:10036000120202F4407242F48052097C090401F442
:10037000FE010A436A60E86059681846224B9847B4
:10038000E860012C0FD001232B6000202B6A13F4AE
:10039000807F36D147F22F5147F230574FF0010E90
:1003A0004FF0020C19E003232B600120EEE70A4610
:1003B00070460CE008B9C5F800C013F0020FF6D083
:1003C00070462B6B3370013C01363A4664B12B6AA0
:1003D00013F4807F11D1511E8AB1012CEAD013F0A1
:1003E000020FEED10A46F1E72B6A13F0010FFBD0A2
:1003F0002B6A00E001242046F8BD0524FBE7092410
:10040000F9E70524F7E700BF2903400070B5CD6880
:10041000002D35D00B4604468E68002060600A7CB3
:10042000120402F4FE024968090201F440710A4311
:100430006260E06059681846154B9847E060236A8F
:1004400013F4807F06D005251BE05DB1236A13F409
:10045000807F18D113F0040FF7D033786363013D28
:100460000136F2E7236A13F4807F0ED113F0040FF4
:10047000F8D002232360236A13F0010FFBD000E0C1
:100480000125284670BD0525FBE70525F9E700BFD6
:1004900029034000C06C7047806C7047430903F526
:1004A000001303F207735B0200F01F00012202FA3F
:1004B00000F018637047430903F5001303F2077354
:1004C0005B0200F01F00012202FA00F0586370473F
:1004D000430903F5001303F207735B02996B00F005
:1004E0001F0201209040014214BF586318637047F7
:1004F00070470000034BD86B80F01000C0F3001071
:10050000704700BF00160E4030B58DB00D46144642
:100510008DF8070040F25710164B984700230793B9
:1005200008930B930DF10703099301230A930D23FD
:100530008DF82C3007A91048104B9847B0B940F2FD
:1005400057100C4B9847002302930393069304958E
:1005500005940D238DF8183002A90748084B9847D9
:10056000003018BF012040420DB030BD4FF0FF30C9
:10057000FAE700BF0100002000800A400D0440009F
:100580004D03400030B583B000238DF8073042F2B0
:100590001073009301250C4C2A460DF10701002031
:1005A000A047009B013B0093009B43B10028F3D17F
:1005B0009DF80730112B18BF6FF0050001E04FF0D8
:1005C000FF3003B030BD00BF0905400008B544222C
:1005D00001460C20014B984708BD00BF09054000AB
:1005E00008B5052201460220014B984708BD00BF0F
:1005F0000905400070B586B006460D46144640F227
:1006000057100C4B98470023019305938DF8046015
:1006100001230293039504940D238DF8143001A94E
:100620000548064B9847003018BF0120404206B0ED
:1006300070BD00BF0100002000800A400D04400092
:1006400008B5442201460C20014B984708BD00BF65
:10065000F505400010B50E480E4B98473E2100208E
:100660000D4B98470D4CA0470028FCD00C4B9847E9
:100670000C4A0D4B9A620D4CA0470028FCD010206C
:100680000B4B98470B4B98470B48024B984710BDB4
:10069000000E2707850B4000D508400029094000BF
:1006A00039094000013F0F2000040E404909400075
:1006B00071084000790A400000D8B80510B54FF421
:1006C0000042674B5A600920664CA0470A20A047A9
:1006D0000B20A0470C20A0470D20A047624B012211
:1006E0001A61C3F8A0201A6360494FF480120A61AE
:1006F000C1F8A0200A634FF400100861C1F8A000FF
:1007000008634FF400215961C3F8A0105966C3F87B
:10071000901059651962C3F88410186F20F40020F6
:100720001867586F20F400205867C3F8C010C3F84A
:10073000D410C3F8B0105A61C3F8A0205A66C3F8A9
:1007400090205A651A62C3F88420196F21F4801131
:100750001967596F21F480115967C3F8C020C3F895
:10076000D020C3F8B02002225A61C3F8A0205A66F4
:10077000C3F890205A651A62C3F88420196F21F0DB
:1007800002011967596F21F002015967C3F8B420BB
:1007900004225A61C3F8A0205A66C3F890205A6513
:1007A0001A62C3F88420196F21F004011967596F88
:1007B00021F004015967C3F8C020C3F8D420C3F85E
:1007C000B0204FF4C0621A66C3F890205A655A628E
:1007D000C3F88020196F21F4C0611967596F21F4A3
:1007E000C06159675A6008221A66C3F890205A659A
:1007F0005A62C3F88020196F21F008011967596FF8
:1008000021F0080159675A6010221A66C3F8902037
:100810005A655A62C3F88020196F21F010011967D8
:10082000596F21F0100159675A6003F500635A614E
:10083000C3F8A0205A66C3F890205A651A62C3F81C
:100840008420196F21F010011967596F21F01001F0
:100850005967C3F8C020C3F8D020C3F8B02010BD3A
:1008600050180E4059094000000E0E4000140E4072
:10087000174A136B23F0700318431063936E13F041
:10088000080F0AD14FF4006311498A6E12F0080F65
:1008900003D1013BF9D1012070470D4A136B23F0BE
:1008A000030343F002031363936E13F0080F0AD19E
:1008B0004FF4006306498A6E12F0080F05D1013B20
:1008C000F9D101207047002070470020704700BF19
:1008D00000040E40C8B9114A136A090289B223F410
:1008E0005C1323F0030343F45C1343F001030B4355
:1008F0001362936E13F0010FFBD0084A136A43F0A2
:100900009B7343F480331362704704490B6A044AB3
:100910001A40044B13430B62704700BF00040E40A3
:10092000FCFFC8FE02003701024B986E00F48030D5
:10093000704700BF00040E404FF00052014B9A6216
:10094000704700BF00040E40024B986E00F002009A
:10095000704700BF00040E402F281ED81F280CD857
:10096000114B9A6901238340934318D0012303FA62
:1009700000F00D4B18610020704720380A4BD3F867
:1009800008210123834093430BD0012303FA00F095
:10099000054BC3F80001002070470120704700207C
:1009A00070470020704700BF00040E40FEE70000C3
:1009B00000B583B0254B264A9A4210D0254B234AD6
:1009C0009A420CD2013B9B1A23F0030304331344D5
:1009D0001F4951F8040B42F8040B9A42F9D11E4BFF
:1009E0001E4A9A420AD2013B9B1A23F003030433A6
:1009F0001344002142F8041B9342FBD1184A194BBF
:100A000023F07F039360EFF31083B3FA83F35B0962
:100A1000019372B6BFF35F8F0022134B1A700199D6
:100A2000124A136843F470031360BFF34F8FBFF390
:100A30006F8F29B101220C4B1A70BFF35F8F62B622
:100A40000B4B98470B4B9847FEE700BF0000002078
:100A5000CC0E40003C040020440500203C04002053
:100A600000ED00E0000040000A00002088ED00E0FA
:100A7000350D4000F90B40003B4B1B6B03F00303AB
:100A8000012B1DD083B1022B36D0374B1B6B03F0EB
:100A90007003702B5FD0344B1A6B3449C2F30212CF
:100AA0000B68D3400B607047314B5B6913F0800FCC
:100AB00014BF4FF400424FF4FA422C4B1A60E4E7A3
:100AC000294B1B6A13F0807F03D02A4A274B1A60F8
:100AD000DBE7294A254B1A60234B1B6A03F070039E
:100AE000102B05D0202BD0D1224A204B1A60CCE706
:100AF000224A1E4B1A60C8E71B4B1B6A13F0807F0B
:100B000016D01C4A194B1A60174B1B6B03F00303DA
:100B1000022BBAD1144A916A926A1448C1F30A416D
:100B2000036801FB0333D2B2B3FBF2F30360ACE71B
:100B3000114A0E4B1A600C4B1B6A03F07003102B0A
:100B400005D0202BE0D10B4A084B1A60DCE70B4A9A
:100B5000064B1A60D8E7054A13680949A1FB03133D
:100B60005B081360704700BF00040E400C000020BB
:100B700010180E40001BB70000093D0000127A005B
:100B8000ABAAAAAA124B984211D9124B984213D978
:100B9000114B984214D9114B984215D9104B9842D9
:100BA00094BF4FF004220F4A0F4B1A6070474FF06A
:100BB00080620D4B1A6070470C4A0B4B1A607047ED
:100BC0000B4A094B1A6070470A4A074B1A60704774
:100BD000FF2C3101FF596202FF869303FFB3C40467
:100BE000FFE0F50500050004000A0E4000010004C6
:100BF000000200040003000470B584B0384B98472D
:100C0000384B984700250395374B0293374B019398
:100C10001120374B984701A93648374B9847374B37
:100C20009847374B9847374C2046374B9847237A9D
:100C3000072262F303032372012363721C2384F8E7
:100C40003D3084F83B502046304B98473048314B7C
:100C50009847314C2E4D2F4E25E075202F4B98474D
:100C600001222F4B1A702BE02D4B1B7843B300222F
:100C70002B4B1A7024E02B4B1B7813B10022294B0D
:100C80001A702B7813F0010F0DD0EB78264A1278EA
:100C90009A4208D0244A1370402B4FF074008CBF46
:100CA000224B234B9847A0470028FCD02846B0474A
:100CB000AB7813F0010FD7D0194B1B78002BCCD099
:100CC000AB7813F0020FD6D0164B1B78002BD8D17F
:100CD0000020124B98470122124B1A70D1E700BF37
:100CE00055064000BD064000A086010000D8B805AA
:100CF0005909400000800A40E9024000F104400028
:100D000085054000DC040020CD0540004106400080
:100D1000D4040020E1054000F5044000D104400067
:100D2000CC040020CD040020CE040020B7044000F5
:100D30009D04400070B50F4E0F4D761BB61018BFC6
:100D4000002405D0013455F8043B9847A642F9D158
:100D50000A4E0B4D761B00F0A7F8B61018BF002402
:100D600006D0013455F8043B9847A642F9D170BD2E
:100D700070BD00BFB40E4000B40E4000BC0E400079
:100D8000B40E4000024B13B1024800F005B87047A2
:100D900000000000A50D4000002301461A46184639
:100DA00000F01EB838B50A4C0A4D641BA4100AD0D6
:100DB00004F18043013B05EB8305013C55F8043900
:100DC0009847002CF9D1BDE8384000F077B800BF53
:100DD000CC0E4000C80E4000704700BF704700BFF7
:100DE0002DE9F8432C4D0646286898460F46914653
:100DF000FFF7F2FF294B1C68D4F84831002B3ED096
:100E00005A681F2A1CDC02F1010E76B103EB820145
:100E10000124C1F88890D3F8880194402043022E21
:100E2000C3F88801C1F8088123D00232C3F804E076
:100E3000286843F82270FFF7D1FF0020BDE8F8834F
:100E4000174B0BB34FF4C870AFF300800346D8B113
:100E5000D4F848210260002141600A46C4F84801E4
:100E60004FF0010EC0F88811C0F88C11002EDCD0B4
:100E7000CCE7D3F88C110C43C3F88C41D5E704F5CB
:100E8000A673C4F84831BBE72868FFF7A7FF4FF007
:100E9000FF30BDE8F88300BF38040020A40E4000F6
:100EA0000000000010000020F8B500BFF8BC08BC2E
:100EB0009E467047850D40001D014000F8B500BFFB
:0C0EC000F8BC08BC9E467047F9004000DA
:100ECC00BFF35F8F0138FBD17047010000093D0073
:100EDC0000000000FC02002064030020CC03002072
:100EEC0000000000000000000000000000000000F6
:100EFC0000000000000000000000000000000000E6
:100F0C0000000000000000000000000000000000D5
:100F1C0000000000000000000000000000000000C5
:100F2C0000000000000000000000000000000000B5
:100F3C0000000000000000000000000000000000A5
:100F4C000000000000000000000000000000000095
:100F5C000000000000000000000000000000000085
:100F6C000000000000000000000000000000000075
:100F7C000000000000000000010000000000000064
:100F8C000E33CDAB34126DE6ECDE05000B00000029
:100F9C000000000000000000000000000000000045
:100FAC000000000000000000000000000000000035
:100FBC000000000000000000000000000000000025
:100FCC000000000000000000000000000000000015
:0C12FC00000000000000000020050020A1
:04000005004009B1FD
:00000001FF
