:020000040040BA
:10000000803400204904400045044000450440007D
:100010004504400045044000450440000000000045
:100020000000000000000000000000004504400047
:100030004504400000000000450440004504400025
:10004000450440004504400045044000450440008C
:10005000450440004504400045044000450440007C
:10006000450440004504400045044000450440006C
:10007000450440004504400045044000450440005C
:10008000450440004504400045044000450440004C
:10009000450440004504400045044000450440003C
:1000A000450440004504400045044000450440002C
:1000B000450440004504400045044000450440001C
:1000C000450440004504400045044000450440000C
:1000D00045044000450440004504400045044000FC
:1000E00045044000450440004504400045044000EC
:1000F000450440004504400010B5054C237833B951
:10010000044B13B10448AFF300800123237010BDEA
:100110003C04002000000000640840000C4B43B188
:100120000C480D4910B5AFF300800C48036823B9A3
:1001300010BD0A48036833B97047094B002BF7D04C
:10014000BDE810401847064B002BF5D0184700BFFC
:1001500000000000640840004004002064084000E3
:100160000000000010B50E480E4B98473E210020BD
:100170000D4B98470D4CA0470028FCD00C4B9847DE
:100180000C4A0D4B9A620D4CA0470028FCD0102061
:100190000B4B98470B4B98470B48024B984710BDA9
:1001A000000E27071D0640006D034000C1034000FC
:1001B000D1034000013F0F2000040E40E103400046
:1001C000090340001105400000D8B80510B54FF4F0
:1001D0000042494B5A600920484CA0470A20A047DA
:1001E0000B20A0470C20A0470D20A047444B012224
:1001F0001A61C3F8A0201A6342494FF480120A61C1
:10020000C1F8A0200A634FF400100861C1F8A000F3
:1002100008634FF400215961C3F8A0105966C3F870
:10022000901059651962C3F88410186F20F40020EB
:100230001867586F20F400205867C3F8C010C3F83F
:10024000D410C3F8B0105A61C3F8A0205A66C3F89E
:1002500090205A651A62C3F88420196F21F4801126
:100260001967596F21F480115967C3F8C020C3F88A
:10027000D020C3F8B02002225A61C3F8A0205A66E9
:10028000C3F890205A651A62C3F88420196F21F0D0
:1002900002011967596F21F002015967C3F8B420B0
:1002A00004225A61C3F8A0205A66C3F890205A6508
:1002B0001A62C3F88420196F21F004011967596F7D
:1002C00021F004015967C3F8C020C3F8D420C3F853
:1002D000B0204FF4C0621A66C3F890205A655A6283
:1002E000C3F88020196F21F4C0611967596F21F498
:1002F000C06159675A6010BD50180E40F1034000AC
:10030000000E0E4000140E40174A136B23F07003CA
:1003100018431063936E13F0080F0AD14FF4006373
:1003200011498A6E12F0080F03D1013BF9D1012067
:1003300070470D4A136B23F0030343F0020313636A
:10034000936E13F0080F0AD14FF4006306498A6ECA
:1003500012F0080F05D1013BF9D1012070470020B0
:1003600070470020704700BF00040E40C8B9114A12
:10037000136A090289B223F45C1323F0030343F4E4
:100380005C1343F001030B431362936E13F0010FF0
:10039000FBD0084A136A43F09B7343F48033136223
:1003A000704704490B6A044A1A40044B13430B621A
:1003B000704700BF00040E40FCFFC8FE020037017A
:1003C000024B986E00F48030704700BF00040E406E
:1003D0004FF00052014B9A62704700BF00040E407C
:1003E000024B986E00F00200704700BF00040E4000
:1003F0002F281ED81F280CD8114B9A69012383403F
:10040000934318D0012303FA00F00D4B186100202C
:10041000704720380A4BD3F80821012383409343C7
:100420000BD0012303FA00F0054BC3F800010020B4
:10043000704701207047002070470020704700BFC0
:1004400000040E40FEE7000000B583B0254B264AAD
:100450009A4210D0254B234A9A420CD2013B9B1A58
:1004600023F00303043313441F4951F8040B42F8EB
:10047000040B9A42F9D11E4B1E4A9A420AD2013B02
:100480009B1A23F0030304331344002142F8041B96
:100490009342FBD1184A194B23F07F039360EFF38B
:1004A0001083B3FA83F35B09019372B6BFF35F8FD6
:1004B0000022134B1A700199124A136843F4700317
:1004C0001360BFF34F8FBFF36F8F29B101220C4B25
:1004D0001A70BFF35F8F62B60B4B98470B4B984770
:1004E000FEE700BF00000020640840003C0400203C
:1004F0007C0400203C04002000ED00E000004000EF
:100500000A00002088ED00E0CD0640009106400082
:100510003B4B1B6B03F00303012B1DD083B1022B5C
:1005200036D0374B1B6B03F07003702B5FD0344B0E
:100530001A6B3449C2F302120B68D3400B60704748
:10054000314B5B6913F0800F14BF4FF400424FF43E
:10055000FA422C4B1A60E4E7294B1B6A13F0807FA8
:1005600003D02A4A274B1A60DBE7294A254B1A6039
:10057000234B1B6A03F07003102B05D0202BD0D126
:10058000224A204B1A60CCE7224A1E4B1A60C8E769
:100590001B4B1B6A13F0807F16D01C4A194B1A6044
:1005A000174B1B6B03F00303022BBAD1144A916A59
:1005B000926A1448C1F30A41036801FB0333D2B2C3
:1005C000B3FBF2F30360ACE7114A0E4B1A600C4B1D
:1005D0001B6A03F07003102B05D0202BE0D10B4ACF
:1005E000084B1A60DCE70B4A064B1A60D8E7054A4D
:1005F00013680949A1FB03135B081360704700BF30
:1006000000040E400C00002010180E40001BB70024
:1006100000093D0000127A00ABAAAAAA124B984228
:1006200011D9124B984213D9114B984214D9114B3E
:10063000984215D9104B984294BF4FF004220F4AAC
:100640000F4B1A6070474FF080620D4B1A60704775
:100650000C4A0B4B1A6070470B4A094B1A607047E3
:100660000A4A074B1A607047FF2C3101FF5962029A
:10067000FF869303FFB3C404FFE0F5050005000403
:10068000000A0E4000010004000200040003000400
:1006900008B5094B9847094B9847094C094E0A4D34
:1006A000E36B13F4801F4FF4801314BF6363236361
:1006B0003046A847F4E700BF65014000CD01400087
:1006C00000140E40DC5034000100002070B50F4EC5
:1006D0000F4D761BB61018BF002405D0013455F815
:1006E000043B9847A642F9D10A4E0B4D761B00F009
:1006F000A7F8B61018BF002406D0013455F8043B03
:100700009847A642F9D170BD70BD00BF4C084000AB
:100710004C084000540840004C084000024B13B104
:10072000024800F005B87047000000003D07400097
:10073000002301461A46184600F01EB838B50A4C88
:100740000A4D641BA4100AD004F18043013B05EB61
:100750008305013C55F804399847002CF9D1BDE8D0
:10076000384000F077B800BF6408400060084000DF
:10077000704700BF704700BF2DE9F8432C4D064677
:10078000286898460F469146FFF7F2FF294B1C68F0
:10079000D4F84831002B3ED05A681F2A1CDC02F1E5
:1007A000010E76B103EB82010124C1F88890D3F8E1
:1007B000880194402043022EC3F88801C1F80881C3
:1007C00023D00232C3F804E0286843F82270FFF710
:1007D000D1FF0020BDE8F883174B0BB34FF4C8706E
:1007E000AFF300800346D8B1D4F84821026000215D
:1007F00041600A46C4F848014FF0010EC0F8881164
:10080000C0F88C11002EDCD0CCE7D3F88C110C434F
:10081000C3F88C41D5E704F5A673C4F84831BBE7AB
:100820002868FFF7A7FF4FF0FF30BDE8F88300BF4F
:10083000380400203C0840000000000010000020A8
:10084000F8B500BFF8BC08BC9E4670471D074000C5
:100850001D014000F8B500BFF8BC08BC9E467047BB
:04086000F90040005B
:10086400BFF35F8F0138FBD17047010000093D00E1
:1008740000000000FC02002064030020CC030020E0
:100884000000000000000000000000000000000064
:100894000000000000000000000000000000000054
:1008A4000000000000000000000000000000000044
:1008B4000000000000000000000000000000000034
:1008C4000000000000000000000000000000000024
:1008D4000000000000000000000000000000000014
:1008E4000000000000000000000000000000000004
:1008F40000000000000000000000000000000000F4
:1009040000000000000000000000000000000000E3
:1009140000000000000000000100000000000000D2
:100924000E33CDAB34126DE6ECDE05000B00000097
:1009340000000000000000000000000000000000B3
:1009440000000000000000000000000000000000A3
:100954000000000000000000000000000000000093
:100964000000000000000000000000000000000083
:0C0C9400000000000000000058040020D8
:04000005004004496A
:00000001FF
