:020000040040BA
:10000000D83800205D0F4000590F4000590F4000C4
:10001000590F4000590F4000590F400000000000E8
:10002000000000000000000000000000590F400028
:10003000590F400000000000590F4000590F4000C8
:10004000590F4000590F4000590F4000590F400010
:10005000590F4000590F4000590F4000590F400000
:10006000590F40006D02400081024000950240009F
:10007000A9024000BD024000590F4000590F400046
:10008000590F4000590F4000590F4000590F4000D0
:10009000590F4000590F4000590F4000590F4000C0
:1000A000590F4000590F4000590F4000590F4000B0
:1000B000590F4000590F4000590F4000590F4000A0
:1000C000590F4000590F4000590F4000590F400090
:1000D000590F4000590F4000590F4000590F400080
:1000E000590F4000590F4000590F4000590F400070
:1000F000590F4000590F400010B5054C237833B913
:10010000044B13B10448AFF300800123237010BDEA
:100110004C04002000000000001C40000C4B43B1C8
:100120000C480D4910B5AFF300800C48036823B9A3
:1001300010BD0A48036833B97047094B002BF7D04C
:10014000BDE810401847064B002BF5D0184700BFFC
:1001500000000000001C400050040020001C400073
:1001600000000000F0B482B0C0F11100102828BFD8
:100170001020002808BF01200021104D4FF4005628
:10018000374618246F630194019B5A1E0192002B7D
:10019000FAD12E630194019B5A1E0192002BFAD1D1
:1001A00001318142EED34FF400330193019B5A1E7B
:1001B0000192002BFAD102B0F0BC704700120E4041
:1001C00082B04FF40052064B5A634FF40033019350
:1001D000019B5A1E0192002BFAD102B0704700BF5A
:1001E00000120E4009014250704700EB01114A60B5
:1001F000704700EB01118A60704700EB0111CA6083
:10020000704700002DE9F84381460F46124B98478E
:1002100005464846114B9847054013D0104C04F151
:10022000600603E0B4420DD010345DB12068B842DE
:10023000F8D161682942F5D0E3689847636825EAF8
:100240000305EFE7074B1B6823B1074B1B680BB196
:1002500048469847BDE8F883D1024000D5024000E7
:1002600068040020A0080020D804002008B5092157
:100270000148024B984708BD000E0E4005024000A1
:1002800008B50A210148024B984708BD00100E40EE
:100290000502400008B50B210148024B984708BDF4
:1002A00000120E400502400008B50C210148024B27
:1002B000984708BD00140E400502400008B50D2106
:1002C0000148024B984708BD00160E400502400049
:1002D000C06C7047806C70470B4B1B78012B02D0B1
:1002E000022B07D070474FF0C24300221A7022221F
:1002F0001A7070474FF0C2432C221A7000221A70F5
:100300003C221A70EEE700BFDC040020C0F3074275
:10031000034B1A70C0F307221A70C0B218707047EE
:10032000020000612DE9F8430746884631F00709CD
:1003300023D004460026124D2068A8476068A847CD
:10034000A068A847E068A8472069A8476069A8474F
:10035000A069A847E069A847083620344E45EBD38A
:10036000464508D207EB8607054D57F8040BA8470A
:100370000136B045F9D1BDE8F8834E46F0E700BF3D
:100380000D0340004FF0C24300221A7018700A0A91
:1003900002331A70C9B219707047000010B44FF0E0
:1003A000C24300241C7018704AB14B1E501E51FAF3
:1003B00080F1044813F8012F02708B42FAD15DF8E6
:1003C000044B70470200006182B000230193019B3F
:1003D000984211D90021094A0191019B934205D805
:1003E000019B01330193019B9342F9D9019B013396
:1003F0000193019B8342EFD302B070479F860100B7
:1004000030B4154C24680568A54224BF04F1FF35BB
:1004100005601568AC429CBF04F1FF3414600F4CBA
:1004200024680D68A54224BF04F1FF350D601D68E6
:10043000AC429CBF04F1FF341C6004681568AC42F8
:1004400084BF056014600A681868824284BF08602F
:100450001A6030BC704700BF0C0000201000002064
:1004600082B04FF0C24300221A70D3221A701A4988
:100470000B788DF800300B788DF801300B78DAB2FC
:100480008DF802200B78DBB28DF8033003EB0223EA
:100490009BB249F24132934214D04FF0C243002242
:1004A0001A701A700C490B78DAB28DF800200B78AC
:1004B00003EB02239BB249F22532934207D001207D
:1004C00002B070470222054B1A700020F8E70122A3
:1004D000024B1A700020F3E702000061DC040020E8
:1004E00008B5094B1B78012B02D0022B06D008BDA2
:1004F00040F233110720054B984708BD00221146F2
:100500002920034B9847F2E7DC04002085034000D4
:100510009D034000044A131F02F56F7243F8040F55
:100520009342FBD1704700BFE00400202DE9F04169
:1005300082B00C4617461E46234B1B78012B04D075
:10054000022B17D002B0BDE8F08185B229465020B9
:10055000DFF87C80C047781E284481B25120C04714
:10056000A4B221465220C047013E3444A1B25320D8
:10057000C047E7E7030A8DF80430C2B28DF80520C2
:100580007B1E1844000A8DF806001F4617448DF89C
:10059000077004220DEB02012A200C4DA847230A04
:1005A0008DF80430E2B28DF80520731E1C44240A35
:1005B0008DF806401E4616448DF8076004220DEBA8
:1005C00002012B20A847BDE7DC0400209D0340006A
:1005D0008503400038B5074B1B78012B00D038BD90
:1005E0000C4601462020044DA84721462120A8475B
:1005F000F5E700BFDC040020850340002DE9F0434F
:1006000083B00646AC4B9847002840F05281F02258
:10061000AA4B1A604FF4A072A94B1A60A94B1B7821
:10062000012B06D0022B00F0B580012003B0BDE8FD
:10063000F08333210720A44CA04700211020A047BD
:1006400001210020A0474FF480710120A0474FF402
:10065000E0610220A04700210420A04740F20721CA
:100660000820A04700210920A04700210A20A04718
:1006700000210C20A04700210D20A04700210F20C1
:10068000A04700211020A04700211120A0470021F1
:100690001220A04700211320A047C8208B4DA84757
:1006A00041F290211020A04740F227211120A047BD
:1006B0003220A8471B211220A0473220A8474FF420
:1006C00088511320A04719212920A0470D212B2054
:1006D000A0473220A84700213020A0474FF40171E5
:1006E0003120A0474FF400713220A0470721352068
:1006F000A04741F204413620A04740F2057137205F
:10070000A04740F205313820A04740F20771392058
:10071000A04740F201713C20A0470E213D20A04798
:100720004DF210010320A0474FF427416020A0475D
:1007300001216120A04700216A20A04700218020DC
:10074000A04700218120A04700218220A04700214E
:100750008320A04700218420A04700218520A047B6
:1007600010219020A0474FF4C0619220A0474FF481
:1007700088719520A0477368326800210846544C60
:10078000A047B068534B984700210846524B984702
:1007900000204BE739238DF800302C238DF80130F1
:1007A00000248DF8024034238DF8033002278DF8A1
:1007B000047005226946CB20484DA8478DF80040BB
:1007C000AA238DF80130B0238DF802300322694648
:1007D000CF20A84730238DF8003001226946F7204A
:1007E000A84725238DF8003001226946C020A8477C
:1007F0004FF011098DF8009001226946C120A847E9
:100800005C238DF800304C238DF801303A46694660
:10081000C520A84794238DF8003001226946C720DF
:10082000A84785238DF800304FF001088DF801802E
:1008300078238DF8023003226946E820A8478DF816
:1008400000408DF801403A466946EA20A84748230F
:100850008DF80030424669463620A84706238DF8B9
:100860000030424669463A20A8478DF8007082233E
:100870008DF8013027238DF802308DF803400422D3
:100880006946B620A8477368326821462046104F53
:10089000B847B0680F4B9847224669464846A84774
:1008A0000A200A4B9847224669462920A847204635
:1008B000BCE60120BAE600BF610440000C00002045
:1008C00010000020DC04002085034000C903400024
:1008D0002D05400015054000D50540009D03400052
:1008E000164B1B68834224D9154B1B688B4222D9B7
:1008F00010B5144B1B78012B03D0022B0DD0002018
:1009000010BD89B280B2104B9847104B9847104BDE
:100910001868104B9847002010BD00231A460E4C53
:10092000A0470A4B98470A4B18680A4B9847002083
:1009300010BD012070470120704700BF0C0000204F
:1009400010000020DC040020D5054000D902400042
:10095000E00400200D0340002D0540002DE9F0418A
:1009600084B003900291019204AA42F8103D13460C
:1009700001AA02A903A8224CA04703980299009B50
:100980000133019A01325B1A121A1E4CA047BDF8BE
:100990000810BDF80C001C4B98471C4B9847039A55
:1009A000019B9A1A009B03F10108029BA8EB030824
:1009B00002FB0888164BA3FB0823DB0953B15C1E1E
:1009C000144FF026144D31463846A847013CB4F187
:1009D000FF3FF8D10E49A1FB0831C909C1EB011154
:1009E000A8EB01110B480C4B98470C4B1B680C4AA9
:1009F000126800210846034CA04704B0BDE8F0810E
:100A0000010440002D054000D5054000D9024000FA
:100A100089888888E0040020250340001000002019
:100A20000C0000202DE9F04F85B00390029213785E
:100A3000002B48D08B460190DFF8948033E00BF117
:100A4000100B039B019329E0013CB4F1FF3F09D057
:100A50002B78234113F0010FF6D0AAEB04013046A6
:100A6000C047F1E707240BF10F0902E0013C012C1C
:100A700009D07B78234113F0010FF7D0A9EB0401D3
:100A80003046C047F2E702350136009BB34202D040
:100A900007242F46DCE7019B0C330193029A12F8DE
:100AA000013F02927BB10A2BC9D003EB8303074DB0
:100AB00005EB8303A3F52075019E33460A330093AB
:100AC0000BF1070AE4E705B0BDE8F08F4C144000D5
:100AD000E108400010B50E480E4B98473E2100201B
:100AE0000D4B98470D4CA0470028FCD00C4B984765
:100AF0000C4A0D4B9A620D4CA0470028FCD01020E8
:100B00000B4B98470B4B98470148024B984710BD39
:100B1000000E270731114000810E4000D50E400025
:100B2000E50E4000013F132000040E40F50E40008A
:100B30001D0E400025104000F8B54FF40042B14BA7
:100B40005A600920B04CA0470A20A0470B20A047BC
:100B50000C20A0470D20A047AC4B01251D61C3F818
:100B6000A0501D63AA494FF480100861C1F8A0008D
:100B700008634FF400120A61C1F8A0200A634FF421
:100B800000225A61C3F8A0205A66C3F890205A6523
:100B90001A62C3F884201C6F24F400241C675C6F65
:100BA00024F400245C67C3F8C020C3F8D420C3F841
:100BB000B0205861C3F8A0005866C3F8900058658B
:100BC0001862C3F884001C6F24F480141C675C6FE7
:100BD00024F480145C67C3F8C000C3F8D000C3F8E5
:100BE000B00002245C61C3F8A0405C66C3F890408A
:100BF0005C651C62C3F88440186F20F0020018671F
:100C0000586F20F002005867C3F8B44004205861C0
:100C1000C3F8A0005866C3F8900058651862C3F87E
:100C200084001E6F26F004061E675E6F26F0040621
:100C30005E67C3F8C000C3F8D400C3F8B0004FF437
:100C4000C0661E66C3F890605E655E62C3F8806031
:100C50001F6F27F4C0671F675F6F27F4C0675F6768
:100C60005E6003F580635D66C3F890505D655D620C
:100C7000C3F880501E6F26F001061E675E6F26F0D7
:100C800001065E675D605C66C3F890405C655C620F
:100C9000C3F880401D6F25F002051D675D6F25F0CC
:100CA00002055D675C605866C3F89000586558623D
:100CB000C3F880001C6F24F004041C675C6F24F0F0
:100CC00004045C67586008205866C3F890005865B3
:100CD0005862C3F880001C6F24F008041C675C6F26
:100CE00024F008045C67586010205866C3F8900030
:100CF00058655862C3F880001C6F24F010041C670C
:100D00005C6F24F010045C67586020205866C3F8BC
:100D1000900058655862C3F880001C6F24F02004CE
:100D20001C675C6F24F020045C67586040205866A4
:100D3000C3F8900058655862C3F880001C6F24F017
:100D400040041C675C6F24F040045C67586080209E
:100D50005866C3F8900058655862C3F880001C6F4D
:100D600024F080041C675C6F24F080045C6758608A
:100D70004FF400605866C3F8900058655862C3F895
:100D800080001C6F24F400641C675C6F24F4006412
:100D90005C6758604FF480705866C3F890005865DF
:100DA0005862C3F880001C6F24F480741C675C6F69
:100DB00024F480745C6758604FF480204866C1F862
:100DC000900048654862C1F880000C6F24F48024CC
:100DD0000C674C6F24F480244C6748605A66C3F853
:100DE00090205A655A62C3F88020196F21F40021BF
:100DF0001967596F21F4002159675A604FF4005266
:100E00001A6107E050180E40050F4000000E0E401A
:100E100000140E40C3F8A020F8BD00BF174A136BA2
:100E200023F0700318431063936E13F0080F0AD178
:100E30004FF4006311498A6E12F0080F03D1013B91
:100E4000F9D1012070470D4A136B23F0030343F0DF
:100E500002031363936E13F0080F0AD14FF400637B
:100E600006498A6E12F0080F05D1013BF9D1012025
:100E70007047002070470020704700BF00040E40FC
:100E8000C8B9114A136A090289B223F45C1323F02A
:100E9000030343F45C1343F001030B431362936EAB
:100EA00013F0010FFBD0084A136A43F09B7343F41D
:100EB00080331362704704490B6A044A1A40044B9A
:100EC00013430B62704700BF00040E40FCFFC8FED6
:100ED00002003701024B986E00F48030704700BF6B
:100EE00000040E404FF00052014B9A62704700BF61
:100EF00000040E40024B986E00F00200704700BFE5
:100F000000040E402F281ED81F280CD8114B9A69B8
:100F100001238340934318D0012303FA00F00D4BC3
:100F200018610020704720380A4BD3F808210123AC
:100F3000834093430BD0012303FA00F0054BC3F821
:100F400000010020704701207047002070470020FA
:100F5000704700BF00040E40FEE7000000B583B0FC
:100F6000254B264A9A4210D0254B234A9A420CD24E
:100F7000013B9B1A23F00303043313441F4951F828
:100F8000040B42F8040B9A42F9D11E4B1E4A9A42B6
:100F90000AD2013B9B1A23F00303043313440021BC
:100FA00042F8041B9342FBD1184A194B23F07F03EC
:100FB0009360EFF31083B3FA83F35B09019372B686
:100FC000BFF35F8F0022134B1A700199124A136806
:100FD00043F470031360BFF34F8FBFF36F8F29B1DA
:100FE00001220C4B1A70BFF35F8F62B60B4B984710
:100FF0000B4B9847FEE700BF00000020001C40009C
:101000004C040020D80800204C04002000ED00E033
:10101000000040001400002088ED00E0DD124000D8
:10102000A51140003B4B1B6B03F00303012B1DD0AC
:1010300083B1022B36D0374B1B6B03F07003702B40
:101040005FD0344B1A6B3449C2F302120B68D340A1
:101050000B607047314B5B6913F0800F14BF4FF486
:1010600000424FF4FA422C4B1A60E4E7294B1B6A0A
:1010700013F0807F03D02A4A274B1A60DBE7294A06
:10108000254B1A60234B1B6A03F07003102B05D00D
:10109000202BD0D1224A204B1A60CCE7224A1E4B8B
:1010A0001A60C8E71B4B1B6A13F0807F16D01C4ADE
:1010B000194B1A60174B1B6B03F00303022BBAD1B9
:1010C000144A916A926A1448C1F30A41036801FB09
:1010D0000333D2B2B3FBF2F30360ACE7114A0E4B19
:1010E0001A600C4B1B6A03F07003102B05D0202BE9
:1010F000E0D10B4A084B1A60DCE70B4A064B1A603A
:10110000D8E7054A13680949A1FB03135B0813607C
:10111000704700BF00040E401800002010180E4059
:10112000001BB70000093D0000127A00ABAAAAAA72
:10113000124B984211D9124B984213D9114B984235
:1011400014D9114B984215D9104B984294BF4FF0C7
:1011500004220F4A0F4B1A6070474FF080620D4B0C
:101160001A6070470C4A0B4B1A6070470B4A094BC8
:101170001A6070470A4A074B1A607047FF2C31010A
:10118000FF596202FF869303FFB3C404FFE0F50535
:1011900000050004000A0E400001000400020004E3
:1011A000000300042DE9F041364B9847364B984731
:1011B0000820364B9847364C4FF00232012120462A
:1011C000344B9847344A01212046344B9847344ADF
:1011D00001212046334B9847032201212046324B00
:1011E0009847324DF0262E604FF4A078C5F8048061
:1011F0000024AC606FF07F47EF602D4B9847284686
:101200002C4B984708202C4B984738462B4DA84725
:101210004346324621462046DFF8BC80C047284B73
:10122000984721462046274B98473846A84723230E
:10123000324621462046C0472046A847224A14216C
:101240000A20224B98472248224B98470B242E46CF
:10125000002547466FF07F40B0472323F022294600
:101260002846B8472846B047174A14212046174B4E
:1012700098471748174B98470134E62CA8BF0A2413
:10128000E8E700BFD50A4000390B4000050F4000D9
:1012900000000640E501400004040A0AEB0140009A
:1012A0000A001600F3014000FB014000A4080020E2
:1012B000C1014000FD0540006501400015054000EA
:1012C000E1044000D5054000CC1B4000250A400049
:1012D0000E450300010000205D09400070B50F4E6F
:1012E0000F4D761BB61018BF002405D0013455F8F9
:1012F000043B9847A642F9D10A4E0B4D761B00F0ED
:101300006DFCB61018BF002406D0013455F8043B1C
:101310009847A642F9D170BD70BD00BFE81B4000E0
:10132000E81B4000F01B4000E81B4000024B13B1DB
:10133000024800F005B87047000000004D1340005F
:10134000002301461A46184600F01EB838B50A4C6C
:101350000A4D641BA4100AD004F18043013B05EB45
:101360008305013C55F804399847002CF9D1BDE8B4
:10137000384000F03DBC00BF001C4000FC1B40009A
:10138000704700BF704700BF2DE9F8432C4D06465B
:10139000286898460F469146FFF7F2FF294B1C68D4
:1013A000D4F84831002B3ED05A681F2A1CDC02F1C9
:1013B000010E76B103EB82010124C1F88890D3F8C5
:1013C000880194402043022EC3F88801C1F80881A7
:1013D00023D00232C3F804E0286843F82270FFF7F4
:1013E000D1FF0020BDE8F883174B0BB34FF4C87052
:1013F000AFF300800346D8B1D4F848210260002141
:1014000041600A46C4F848014FF0010EC0F8881147
:10141000C0F88C11002EDCD0CCE7D3F88C110C4333
:10142000C3F88C41D5E704F5A673C4F84831BBE78F
:101430002868FFF7A7FF4FF0FF30BDE8F88300BF33
:1014400048040020D81B40000000000000000000FD
:10145000000000000000000000000000000000008C
:101460000000000000000000FFCCFFCC00000000E6
:101470000000000000000000F000F000000000008C
:10148000F000F000000000000CC00CC0FFFCFFFCEE
:101490000CC00CC0FFFCFFFC0CC00CC00C601E702C
:1014A0003F303330FFFCFFFC333033F039E018C0FD
:1014B0006000F00CF03C60F003C00F003C18F03C02
:1014C000C03C00183CF07FF8C31CC78CCFCCDCECD0
:1014D0007878303000FC00CC0000000000004400B0
:1014E000EC00F800700000000000000000000000A8
:1014F0000FC03FF078786018C00CC00C00000000EE
:1015000000000000C00CC00C601878783FF00FC0DD
:10151000000000000C600EE007C003803FF83FF8B9
:10152000038007C00EE00C6003000300030003000B
:101530003FF03FF00300030003000300004400EC11
:1015400000F8007000000000000000000000000033
:101550000300030003000300030003000300030073
:10156000030003000018003C003C001800000000CD
:1015700000000000000000000000000C003C00F033
:1015800003C00F003C00F000C00000003FF07FF8F7
:10159000E0FCC1CCC38CC70CCE0CFC1C7FF83FF028
:1015A00000000000300C700CFFFCFFFC000C000C75
:1015B00000000000300C701CE03CC07CC0ECC1CCD2
:1015C000C38CE70C7E0C3C0C30307038E01CC00C37
:1015D000C00CC30CC30CE31C7FF83CF003C007C075
:1015E0000EC01CC038C070C0FFFCFFFC00C000C0B3
:1015F000FC30FC38CC1CCC0CCC0CCC0CCC0CCE1C59
:10160000C7F8C3F03FF07FF8E31CC30CC30CC30C56
:10161000C30CE39C71F830F0C000C000C000C000F3
:10162000C3FCC7FCCE00DC00F800F0003CF07FF803
:10163000E79CC30CC30CC30CC30CE79C7FF83CF0C5
:101640003C007E00E70CC30CC31CC338C370E7E04A
:101650007FC03F8000000000000018603CF03CF0BC
:1016600018600000000000000000000000001844A6
:101670003CEC3CF818700000000000000000030083
:1016800007800FC01CE038707038E01CC00C0000F0
:101690000CC00CC00CC00CC00CC00CC00CC00CC0EA
:1016A0000CC00CC00000C00CE01C703838701CE08E
:1016B0000FC007800300000030007000E000C00091
:1016C000C1ECC3ECC300E6007E003C0030F071F8D2
:1016D000E39CC30CC3FCC3FCC00CE01C7FF83FF0D0
:1016E0003FFC7FFCE0C0C0C0C0C0C0C0C0C0E0C004
:1016F0007FFC3FFCFFFCFFFCC30CC30CC30CC30C02
:10170000C30CE79C7FF83CF03FF07FF8E01CC00C76
:10171000C00CC00CC00CE01C70383030FFFCFFFC6B
:10172000C00CC00CC00CC00CC00CE01C7FF83FF01B
:10173000FFFCFFFCC30CC30CC30CC30CC30CC30CD9
:10174000C00CC00CFFFCFFFCC300C300C300C300FF
:10175000C300C300C000C0003FF07FF8E01CC00C15
:10176000C00CC30CC30CE31C73F833F0FFFCFFFC8C
:10177000030003000300030003000300FFFCFFFC61
:1017800000000000C00CC00CFFFCFFFCC00CC00C33
:101790000000000000300038C01CC00CC00CC01C91
:1017A000FFF8FFF0C000C000FFFCFFFC07800780CF
:1017B0000FC01CE038707038E01CC00CFFFCFFFC50
:1017C000000C000C000C000C000C000C000C000CB9
:1017D000FFFCFFFC700038001F001F003800700085
:1017E000FFFCFFFCFFFCFFFC1C000E000700038059
:1017F00001C000E0FFFCFFFC3FF07FF8E01CC00CE4
:10180000C00CC00CC00CE01C7FF83FF0FFFCFFFCDC
:10181000C300C300C300C300C300E7007E003C0058
:101820003FF07FF8E01CC00CC0CCC0ECC07CE038BE
:101830007FFC3FECFFFCFFFCC300C380C380C3C040
:10184000C3C0E7707E3C3C1C3C187E1CE70CC30CFC
:10185000C30CC30CC30CC39CE1F860F0C000C00013
:10186000C000C000FFFCFFFCC000C000C000C00002
:10187000FFF0FFF8001C000C000C000C000C001C1A
:10188000FFF8FFF0FFC0FFE000700038001C001CF4
:1018900000380070FFE0FFC0FFF0FFF8001C003CC4
:1018A00000F800F8003C001CFFF8FFF0F03CF87C6A
:1018B0001CE00FC0078007800FC01CE0F87CF03CE4
:1018C000FC00FE000700038001FC01FC0380070010
:1018D000FE00FC00C03CC07CC0ECC1CCC38CC70C7B
:1018E000CE0CDC0CF80CF00C00000000FFFCFFFC40
:1018F000C00CC00CC00C0000000000003000300024
:101900000C000C000300030000C000C000300030D9
:1019100000000000C00CC00CC00CFFFCFFFC00006D
:10192000000000000C001C0038007000E000E00027
:10193000700038001C000C00000C000C000C000CA7
:10194000000C000C000C000C000C000C000000004F
:10195000C000E00070003800180000000000000027
:10196000003006780EFC0CCC0CCC0CCC0CCC0ECC85
:1019700007FC03F8FFFCFFFC030C030C030C030C37
:10198000030C039C01F800F003F007F80E1C0C0C8C
:101990000C0C0C0C0C0C0E1C0738033000F001F87A
:1019A000039C030C030C030C030C030CFFFCFFFC57
:1019B00003F007F80EDC0CCC0CCC0CCC0CCC0EDC01
:1019C00007D80390000003003FFC7FFCE300E30026
:1019D00070003000000000000318079C0FCC0CCCF6
:1019E0000CCC0CCC0CCC0CDC0FF807F0FFFCFFFC93
:1019F0000300030003000300038001FC00FC00005F
:101A000000000000000000001BFC1BFC00000000A8
:101A100000000000000000300038001C000C000C2A
:101A2000001CCFF8CFF000000000FFFCFFFC00E03E
:101A300001E003F007380E1C0C0C00000000000051
:101A4000C00CC00CFFFCFFFC000C000C00000000F0
:101A50000FFC0FFC0E00070003C003C007000E00C0
:101A60000FFC0FFC0FFC0FFC030007000E000C0026
:101A70000C000E0007FC03FC03F007F80E1C0C0C16
:101A80000C0C0C0C0C0C0E1C07F803F00FFC0FFCDC
:101A90000CC00CC00CC00CC00CC00FC007800300F1
:101AA000030007800FC00CC00CC00CC00CC00CC0E1
:101AB0000FFC0FFC0FFC0FFC038007000E000C0056
:101AC0000C000E00070003000318079C0FCC0CCC81
:101AD0000CCC0CCC0CCC0CFC0E78063000000C00AE
:101AE0000C00FFF0FFF80C1C0C1C0C380C30000034
:101AF0000FF00FF8001C000C000C000C000C001C78
:101B00000FF80FF00FC00FE000700038001C001C31
:101B1000003800700FE00FC00FF00FF8001C001C21
:101B200000F800F8001C001C0FF80FF00C0C0E1C45
:101B3000073803F001E001E003F007380E1C0C0C3D
:101B40000C000E00070C039C01F801F00380070055
:101B50000E000C000C0C0C1C0C3C0C7C0CEC0DCC8A
:101B60000F8C0F0C0E0C0C0C0000030007803FF0D4
:101B70007CF8E01CC00CC00CC00C0000030C030C73
:101B80003FFC7FFCE30CC30CC00CE00C700C300C71
:101B90000000C00CC00CC00CE01C7CF83FF00780BB
:101BA00003000000C000C000C000C000C000C000B2
:101BB000C000C000C000C000FFFCFFFCFFFCFFFC39
:101BC000FFFCFFFCFFFCFFFCFFFCFFFC7572736475
:101BD000616720746578740020000020F8B500BFAC
:101BE000F8BC08BC9E4670472D1340001D01400004
:101BF000F8B500BFF8BC08BC9E467047F90040002D
:101C0000BFF35F8F0138FBD170470000F000000088
:101C1000400100000100000000093D00000000003C
:101C2000000000000C03002074030020DC030020EF
:101C300000000000000000000000000000000000A4
:101C40000000000000000000000000000000000094
:101C50000000000000000000000000000000000084
:101C60000000000000000000000000000000000074
:101C70000000000000000000000000000000000064
:101C80000000000000000000000000000000000054
:101C90000000000000000000000000000000000044
:101CA0000000000000000000000000000000000034
:101CB0000000000000000000000000000000000024
:101CC0000000000000000000010000000000000013
:101CD0000E33CDAB34126DE6ECDE05000B000000D8
:101CE00000000000000000000000000000000000F4
:101CF00000000000000000000000000000000000E4
:101D000000000000000000000000000000000000D3
:101D100000000000000000000000000000000000C3
:0C2040000000000000000000B4080020B8
:0400000500400F5D4B
:00000001FF
