S0180000494C49393358585F4558414D504C45312E7372656376
S214400000B83C0020990F4000970F4000970F4000E3
S214400010970F4000970F4000970F400000000000E9
S214400020000000000000000000000000970F4000A5
S214400030970F400000000000970F4000970F4000C9
S214400040970F4000970F4000970F4000970F4000D3
S214400050970F4000970F4000970F4000970F4000C3
S214400060970F4000970F4000970F4000970F4000B3
S214400070970F4000970F4000970F4000970F4000A3
S214400080970F4000970F4000970F4000970F400093
S214400090970F4000970F4000970F4000970F400083
S2144000A0970F4000970F4000970F4000970F400073
S2144000B0970F4000970F4000970F4000970F400063
S2144000C0970F4000970F4000970F4000970F400053
S2144000D0970F4000970F4000970F4000970F400043
S2144000E0970F4000970F4000970F4000970F400033
S2144000F0970F4000970F400010B5054C237833B952
S214400100044B13B10448AFF300800123237010BDA5
S2144001105C08002000000000882D40000C4B43B1D6
S2144001200C480D4910B5AFF300800C48036823B95E
S21440013010BD0A48036833B97047094B002BF7D007
S214400140BDE810401847064B002BF5D0184700BFB7
S21440015000000000882D400060080020882D4000E8
S2144001600000000010B50E480E4B98473E21002078
S2144001700D4B98470D4CA0470028FCD00C4B984799
S2144001800C4A0D4B9A620D4CA0470028FCD010201C
S2144001900B4B98470B4B98470148024B984710BD6E
S2144001A0000E27076D114000390E40008D0E4000AE
S2144001B09D0E4000013F132000040E40AD0E40004F
S2144001C0D50D4000611040002DE9F04180B90C4645
S2144001D09046002A0FDD8F18084E094D306821469C
S2144001E02B6898470134BC42F8D14046BDE8F081C0
S2144001F04FF0FF38F9E78046F7E700BF7C0C002059
S214400200740C00200138022815D82DE9F0410E461E
S21440021014469AB10D46DFF838800C4FD8F80000E7
S21440022015F8011B3B68984700280ADBA81B013CD1
S214400230F4D1BDE8F0814FF0FF3070471046BDE87E
S214400240F0814FF0FF30BDE8F08100BF780C002011
S2144002507C0C0020F8B54FF40042B14B5A600920A0
S214400260B04CA0470A20A0470B20A0470C20A04730
S2144002700D20A047AC4B01251D61C3F8A0501D635F
S214400280AA494FF480100861C1F8A00008634FF4F3
S21440029000120A61C1F8A0200A634FF400225A6196
S2144002A0C3F8A0205A66C3F890205A651A62C3F86D
S2144002B084201C6F24F400241C675C6F24F4002404
S2144002C05C67C3F8C020C3F8D420C3F8B020586198
S2144002D0C3F8A0005866C3F8900058651862C3F883
S2144002E084001C6F24F480141C675C6F24F4801414
S2144002F05C67C3F8C000C3F8D000C3F8B00002245F
S2144003005C61C3F8A0405C66C3F890405C651C62C4
S214400310C3F88440186F20F002001867586F20F02A
S21440032002005867C3F8B44004205861C3F8A000E0
S2144003305866C3F8900058651862C3F884001E6F6C
S21440034026F004061E675E6F26F004065E67C3F856
S214400350C000C3F8D400C3F8B0004FF4C0661E66B1
S214400360C3F890605E655E62C3F880601F6F27F4D6
S214400370C0671F675F6F27F4C0675F675E6003F5FF
S21440038080635D66C3F890505D655D62C3F88050DB
S2144003901E6F26F001061E675E6F26F001065E673A
S2144003A05D605C66C3F890405C655C62C3F8804004
S2144003B01D6F25F002051D675D6F25F002055D6720
S2144003C05C605866C3F8900058655862C3F8800071
S2144003D01C6F24F004041C675C6F24F004045C6704
S2144003E0586008205866C3F8900058655862C3F8AD
S2144003F080001C6F24F008041C675C6F24F008041F
S2144004005C67586010205866C3F89000586558627C
S214400410C3F880001C6F24F010041C675C6F24F047
S21440042010045C67586020205866C3F890005865F2
S2144004305862C3F880001C6F24F020041C675C6F71
S21440044024F020045C67586040205866C3F890004B
S21440045058655862C3F880001C6F24F040041C673F
S2144004605C6F24F040045C67586080205866C3F890
S214400470900058655862C3F880001C6F24F08004D2
S2144004801C675C6F24F080045C6758604FF4006023
S2144004905866C3F8900058655862C3F880001C6FD1
S2144004A024F400641C675C6F24F400645C67586046
S2144004B04FF480705866C3F8900058655862C3F889
S2144004C080001C6F24F480741C675C6F24F4807476
S2144004D05C6758604FF480204866C1F890004865D5
S2144004E04862C1F880000C6F24F480240C674C6F7F
S2144004F024F480244C6748605A66C3F890205A65B6
S2144005005A62C3F88020196F21F400211967596F89
S21440051021F4002159675A604FF400521A6107E0EF
S21440052050180E40BD0E4000000E0E4000140E4007
S214400530C3F8A020F8BD00BFF0B482B0C0F11100EF
S214400540102828BF1020002808BF01200021104D89
S2144005504FF40056374618246F630194019B5A1E89
S2144005600192002BFAD12E630194019B5A1E0192F0
S214400570002BFAD101318142EED34FF40033019380
S214400580019B5A1E0192002BFAD102B0F0BC704774
S21440059000120E4082B04FF40052064B5A634FF49E
S2144005A000330193019B5A1E0192002BFAD102B0F0
S2144005B0704700BF00120E400B4B1B78012B02D039
S2144005C0022B07D070474FF0C24300221A702222F7
S2144005D01A7070474FF0C2432C221A7000221A70CD
S2144005E03C221A70EEE700BF78080020C0F30742AE
S2144005F0034B1A70C0F307221A70C0B218707047C7
S214400600020000612DE9F8430746884631F00709A5
S21440061023D004460026124D2068A8476068A847A5
S214400620A068A847E068A8472069A8476069A84727
S214400630A069A847E069A847083620344E45EBD362
S214400640464508D207EB8607054D57F8040BA847E2
S2144006500136B045F9D1BDE8F8834E46F0E700BF15
S214400660ED0540004FF0C24300221A7018700A0A87
S21440067002331A70C9B219707047000010B44FF0B8
S214400680C24300241C7018704AB14B1E501E51FACB
S21440069080F1044813F8012F02708B42FAD15DF8BE
S2144006A0044B70470200006182B000230193019B17
S2144006B0984211D90021094A0191019B934205D8DD
S2144006C0019B01330193019B9342F9D9019B01336E
S2144006D00193019B8342EFD302B070479F8601008F
S2144006E030B4154C24680568A54224BF04F1FF3594
S2144006F005601568AC429CBF04F1FF3414600F4C93
S21440070024680D68A54224BF04F1FF350D601D68BE
S214400710AC429CBF04F1FF341C6004681568AC42D0
S21440072084BF056014600A681868824284BF086007
S2144007301A6030BC704700BF0C000020100000203C
S21440074082B04FF0C24300221A70D3221A701A4960
S2144007500B788DF800300B788DF801300B78DAB2D4
S2144007608DF802200B78DBB28DF8033003EB0223C2
S2144007709BB249F24132934214D04FF0C24300221A
S2144007801A701A700C490B78DAB28DF800200B7884
S21440079003EB02239BB249F22532934207D0012055
S2144007A002B070470222054B1A700020F8E701227B
S2144007B0024B1A700020F3E7020000617808002020
S2144007C008B5094B1B78012B02D0022B06D008BD7A
S2144007D040F233110720054B984708BD00221146CA
S2144007E02920034B9847F2E778080020650640002A
S2144007F07D064000044A131F02F56F7243F8040F4B
S2144008009342FBD1704700BF7C0800202DE9F041A1
S21440081082B00C4617461E46234B1B78012B04D04D
S214400820022B17D002B0BDE8F08185B22946502091
S214400830DFF87C80C047781E284481B25120C047EC
S214400840A4B221465220C047013E3444A1B25320B0
S214400850C047E7E7030A8DF80430C2B28DF805209A
S2144008607B1E1844000A8DF806001F4617448DF874
S214400870077004220DEB02012A200C4DA847230ADC
S2144008808DF80430E2B28DF80520731E1C44240A0D
S2144008908DF806401E4616448DF8076004220DEB80
S2144008A002012B20A847BDE7780800207D064000BF
S2144008B06506400038B5074B1B78012B00D038BD85
S2144008C00C4601462020044DA84721462120A84733
S2144008D0F5E700BF78080020650640002DE9F043A4
S2144008E083B00646AC4B9847002840F05281F02231
S2144008F0AA4B1A604FF4A072A94B1A60A94B1B78FA
S214400900012B06D0022B00F0B580012003B0BDE8D5
S214400910F08333210720A44CA04700211020A04795
S21440092001210020A0474FF480710120A0474FF4DA
S214400930E0610220A04700210420A04740F20721A2
S2144009400820A04700210920A04700210A20A047F0
S21440095000210C20A04700210D20A04700210F2099
S214400960A04700211020A04700211120A0470021C9
S2144009701220A04700211320A047C8208B4DA8472F
S21440098041F290211020A04740F227211120A04795
S2144009903220A8471B211220A0473220A8474FF4F8
S2144009A088511320A04719212920A0470D212B202C
S2144009B0A0473220A84700213020A0474FF40171BD
S2144009C03120A0474FF400713220A0470721352040
S2144009D0A04741F204413620A04740F20571372037
S2144009E0A04740F205313820A04740F20771392031
S2144009F0A04740F201713C20A0470E213D20A04771
S214400A004DF210010320A0474FF427416020A04735
S214400A1001216120A04700216A20A04700218020B4
S214400A20A04700218120A04700218220A047002126
S214400A308320A04700218420A04700218520A0478E
S214400A4010219020A0474FF4C0619220A0474FF459
S214400A5088719520A0477368326800210846544C38
S214400A60A047B068534B984700210846524B9847DA
S214400A7000204BE739238DF800302C238DF80130C9
S214400A8000248DF8024034238DF8033002278DF879
S214400A90047005226946CB20484DA8478DF8004093
S214400AA0AA238DF80130B0238DF802300322694620
S214400AB0CF20A84730238DF8003001226946F72022
S214400AC0A84725238DF8003001226946C020A84754
S214400AD04FF011098DF8009001226946C120A847C1
S214400AE05C238DF800304C238DF801303A46694639
S214400AF0C520A84794238DF8003001226946C720B8
S214400B00A84785238DF800304FF001088DF8018006
S214400B1078238DF8023003226946E820A8478DF8EE
S214400B2000408DF801403A466946EA20A8474823E7
S214400B308DF80030424669463620A84706238DF891
S214400B400030424669463A20A8478DF80070822316
S214400B508DF8013027238DF802308DF803400422AB
S214400B606946B620A8477368326821462046104F2B
S214400B70B847B0680F4B9847224669464846A8474C
S214400B800A200A4B9847224669462920A84720460D
S214400B90BCE60120BAE600BF410740000C0000203A
S214400BA0100000207808002065064000A906400096
S214400BB00D084000F5074000B50840007D0640009F
S214400BC0164B1B68834224D9154B1B688B4222D98F
S214400BD010B5144B1B78012B03D0022B0DD00020F0
S214400BE010BD89B280B2104B9847104B9847104BB7
S214400BF01868104B9847002010BD00231A460E4C2C
S214400C00A0470A4B98470A4B18680A4B984700205B
S214400C1010BD012070470120704700BF0C00002027
S214400C201000002078080020B5084000B9054000B4
S214400C307C080020ED0540000D0840002DE9F041FD
S214400C4084B003900291019204AA42F8103D1346E4
S214400C5001AA02A903A8224CA04703980299009B28
S214400C600133019A01325B1A121A1E4CA047BDF896
S214400C700810BDF80C001C4B98471C4B9847039A2D
S214400C80019B9A1A009B03F10108029BA8EB0308FC
S214400C9002FB0888164BA3FB0823DB0953B15C1EF6
S214400CA0144FF026144D31463846A847013CB4F15F
S214400CB0FF3FF8D10E49A1FB0831C909C1EB01112C
S214400CC0A8EB01110B480C4B98470C4B1B680C4A81
S214400CD0126800210846034CA04704B0BDE8F081E6
S214400CE0E10640000D084000B5084000B905400048
S214400CF0898888887C08002005064000100000206F
S214400D000C0000202DE9F04F85B003900292137836
S214400D10002B48D08B460190DFF8948033E00BF1EF
S214400D20100B039B019329E0013CB4F1FF3F09D02F
S214400D302B78234113F0010FF6D0AAEB040130467E
S214400D40C047F1E707240BF10F0902E0013C012CF4
S214400D5009D07B78234113F0010FF7D0A9EB0401AB
S214400D603046C047F2E702350136009BB34202D018
S214400D7007242F46DCE7019B0C330193029A12F8B6
S214400D80013F02927BB10A2BC9D003EB8303074D88
S214400D9005EB8303A3F52075019E33460A33009383
S214400DA00BF1070AE4E705B0BDE8F08FD425400014
S214400DB0C10B400009014250704700EB01114A60E8
S214400DC0704700EB01118A60704700EB0111CA6062
S214400DD070470000174A136B23F0700318431063E4
S214400DE0936E13F0080F0AD14FF4006311498A6ED0
S214400DF012F0080F03D1013BF9D1012070470D4A8C
S214400E00136B23F0030343F002031363936E13F054
S214400E10080F0AD14FF4006306498A6E12F0080F95
S214400E2005D1013BF9D101207047002070470020D2
S214400E30704700BF00040E40C8B9114A136A090241
S214400E4089B223F45C1323F0030343F45C1343F0AA
S214400E5001030B431362936E13F0010FFBD0084A55
S214400E60136A43F09B7343F480331362704704491C
S214400E700B6A044A1A40044B13430B62704700BF88
S214400E8000040E40FCFFC8FE02003701024B986E7D
S214400E9000F48030704700BF00040E404FF0005210
S214400EA0014B9A62704700BF00040E40024B986E9A
S214400EB000F00200704700BF00040E402F281ED8E6
S214400EC01F280CD8114B9A6901238340934318D0AE
S214400ED0012303FA00F00D4B1861002070472038BC
S214400EE00A4BD3F808210123834093430BD00123B8
S214400EF003FA00F0054BC3F80001002070470120BC
S214400F007047002070470020704700BF00040E4026
S214400F1010B4AC2303600B684A68B3FBF2F31B09BA
S214400F205C1E4FF6FE7294420CD803628B68436098
S214400F3040F20223C0F820315023036000205DF8C1
S214400F40044B70470120FAE7436913F0020F1ABFBB
S214400F50C161002001207047436913F0010F1DBF97
S214400F6083690B70002001207047436913F0020F1D
S214400F701DBFC1F30801C1610020012070474369CD
S214400F8013F0010F05D08369C3F308030B600020FC
S214400F90704701207047FEE700B583B0254B264AD0
S214400FA09A4210D0254B234A9A420CD2013B9B1AB8
S214400FB023F00303043313441F4951F8040B42F84B
S214400FC0040B9A42F9D11E4B1E4A9A420AD2013B62
S214400FD09B1A23F0030304331344002142F8041BF6
S214400FE09342FBD1184A194B23F07F039360EFF3EB
S214400FF01083B3FA83F35B09019372B6BFF35F8F36
S2144010000022134B1A700199124A136843F4700376
S2144010101360BFF34F8FBFF36F8F29B101220C4B84
S2144010201A70BFF35F8F62B60B4B98470B4B9847CF
S214401030FEE700BF00000020882D40005C0800202E
S214401040B80C00205C08002000ED00E000004000E6
S2144010500A00002088ED00E0DD1440003513400013
S2144010603B4B1B6B03F00303012B1DD083B1022BBC
S21440107036D0374B1B6B03F07003702B5FD0344B6E
S2144010801A6B3449C2F302120B68D3400B607047A8
S214401090314B5B6913F0800F14BF4FF400424FF49E
S2144010A0FA422C4B1A60E4E7294B1B6A13F0807F08
S2144010B003D02A4A274B1A60DBE7294A254B1A6099
S2144010C0234B1B6A03F07003102B05D0202BD0D186
S2144010D0224A204B1A60CCE7224A1E4B1A60C8E7C9
S2144010E01B4B1B6A13F0807F16D01C4A194B1A60A4
S2144010F0174B1B6B03F00303022BBAD1144A916AB9
S214401100926A1448C1F30A41036801FB0333D2B222
S214401110B3FBF2F30360ACE7114A0E4B1A600C4B7C
S2144011201B6A03F07003102B05D0202BE0D10B4A2E
S214401130084B1A60DCE70B4A064B1A60D8E7054AAC
S21440114013680949A1FB03135B081360704700BF8F
S21440115000040E401400002010180E40001BB7007C
S21440116000093D0000127A00ABAAAAAA124B984288
S21440117011D9124B984213D9114B984214D9114B9E
S214401180984215D9104B984294BF4FF004220F4A0C
S2144011900F4B1A6070474FF080620D4B1A607047D5
S2144011A00C4A0B4B1A6070470B4A094B1A60704743
S2144011B00A4A074B1A607047FF2C3101FF596202FA
S2144011C0FF869303FFB3C404FFE0F5050005000463
S2144011D0000A0E4000010004000200040003000460
S2144011E00A4B1B6853B1094B1B681A1808499142B1
S2144011F008DB1046054A106018467047054A034B00
S2144012001A60F0E74FF0FF30704700BF3C0C0020FC
S214401210FCFF0120B83C00204FF0FF3070474FF4F1
S21440122000534B600020704700207047F0B583B0F5
S21440123005460C4600230193184B98420AD0184B9B
S21440124098420FD0174B984214D0174B9D421BD054
S21440125003B0F0BD1F46154E21463846B04700281D
S214401260FAD1F2E71E46114D21463046A8470028DF
S214401270FAD1EDE71E460E4D01A93046A847002894
S214401280FAD1019B2370E3E71E46094D01A930467B
S214401290A8470028FAD1019B2370D9E700060E40E4
S2144012A00006064000000A4000400A40590F400031
S2144012B07F0F400070B50C46184B98420AD0184B2A
S2144012C0984210D0174B984216D0174B98421CD0D5
S2144012D0002070BD1E46154D21463046A8470028C2
S2144012E0FAD1012070BD1E46104D21463046A84713
S2144012F00028FAD1012070BD1E460D4D21463046CD
S214401300A8470028FAD1012070BD1E46084D214648
S2144013103046A8470028FAD1012070BD00060E408E
S2144013200006064000000A4000400A40490F4000C0
S2144013306B0F40002DE9F04385B0484B9847484B2B
S21440134098470720474CA047474D484B1D60484AA2
S214401350484B1A60484A494B1A60494B01934FF430
S214401360E13302934FF4006303930720A04701A99B
S2144013702846444B9847444E336800219868434D6E
S214401380A847336800215868A8470820A047404C23
S2144013904FF00232012120463E4B98473E4A0121FB
S2144013A020463E4B98473E4A012120463D4B9847B3
S2144013B00322012120463C4B98473C4DF0262E60A8
S2144013C04FF4A0776F600024AC606FF07F48C5F89C
S2144013D00C80374B98472846364B98470820364B64
S2144013E098474046354DA8473B463246214620461C
S2144013F0DFF8E490C847324B984721462046314BA9
S21440140098474046A8473B46324621462046C8476E
S2144014102046A8472C4A14210A202C4B98472C4893
S2144014202C4B98470B242E4600254F466FF07F40A6
S214401430B0474FF4A073F02229462846B8472846BE
S214401440B047214A14212046204B98472048214B3C
S21440145098470134E62CA8BF0A24E7E76501400018
S21440146055024000BD0E400000060E407C0C002099
S214401470B5124000780C00202D124000740C00205D
S214401480000E2707110F400018000020C915400025
S21440149000000640B50D400004040A0ABB0D40009B
S2144014A00A001600C30D4000CB0D4000800C002003
S2144014B095054000DD08400039054000F50740002E
S2144014C0C1074000B5084000542D4000050D4000BF
S2144014D00E450300010000203D0C400070B50F4E45
S2144014E00F4D761BB61018BF002405D0013455F8B2
S2144014F0043B9847A642F9D10A4E0B4D761B01F0A5
S21440150031FCB61018BF002406D0013455F8043B11
S2144015109847A642F9D170BD70BD00BF702D4000FF
S214401520702D4000782D4000702D400070B4860726
S21440153046D0541E002A41D0CAB2034602E014F1F7
S214401540FF343BD303F8012B9D07F8D1032C2ED94B
S214401550CDB245EA05250F2C45EA054519D903F1D4
S21440156010022646103E0F2E42F8105C42F80C5CE5
S21440157042F8085C42F8045C02F11002F2D8A4F18A
S214401580100222F00F0204F00F041032032C134412
S2144015900DD91E462246043A032A46F8045BFAD87A
S2144015A0221F22F003020432134404F003042CB139
S2144015B0C9B21C4403F8011B9C42FBD170BC704767
S2144015C014460346C2E700BF00290CBF0222002291
S2144015D04FF4806300F000B82DE9F043614C256875
S2144015E083B004460F4690461E4615B1AB6B002BA3
S2144015F064D0B8F1020F06D0B8F1010F00F29F8018
S214401600002EC0F29C80636ED80734D5214628460B
S21440161000F05AF9216B41B104F14003994202D0DF
S214401620284600F04BFA00232363B4F90C3000221E
S214401630A26162601A063AD423F44A6323F0030395
S214401640B8F1020FA3811DD001AB6A462146284659
S21440165000F04CFBA3891843A081002E32D1009E97
S214401660304600F071FB074600286BD0A38943F054
S2144016708003A38128E0A3899905C7D4A06D00F014
S21440168031FBC3E70025616E002604F1430243F0B8
S21440169002030120A660CE07A3812260226160611A
S2144016A001D498053ED5284603B0BDE8F0832169AD
S2144016B0284600F003FAB4F90C30BDE7284600F09F
S2144016C05BF996E7002FCBD0AB6B002B33D0009B5B
S2144016D0B4F90C2027609E421CBF42F40062A281EF
S2144016E0B8F1010F04BF42F00102A28192B212F09B
S2144016F00803276166610ED0D1071AD5656E76421B
S214401700002315F00105A661A36009D000252846F0
S21440171003B0BDE8F083A360656E15F00105F5D112
S2144017209305C0D4A06D00F0DFFA284603B0BDE8AC
S214401730F083A660F0E7284600F01EF9C7E74FF0B2
S214401740FF35B0E7DDF80090B14504D0484600F0DC
S214401750FBFA074620B9B4F90C304FF0FF3592E754
S2144017604E4683E718000020024B13B1024800F0B3
S21440177005B8704700000000E91940000023014604
S2144017801A46184600F010BEB1F90C309AB22DE950
S214401790F0410D46110780463AD46A6843F4006328
S2144017A0002AAB816FDDAC6A002C49D000229BB288
S2144017B0D8F80060C8F8002013F4805267D02A6D2D
S2144017C05F0705D569682B6B521A0BB1EB6BD21AC3
S2144017D00023E9694046A047441C3CD0B5F90C308C
S2144017E02A692A6023F400630022AB81DB046A6026
S2144017F047D4296BC8F8006011B305F140039942FD
S21440180002D0404600F05AF900202863BDE8F08137
S2144018102E69AEB12C682E6091070CBF6B69002311
S214401820A41BAB600AE0234632466F6AE96940462D
S214401830B8470028A4EB0004064404DD002CF2DC84
S2144018400020BDE8F081AB8943F04003AB814FF008
S214401850FF30BDE8F081D8F800401D2CF3D8194B76
S214401860E340DB4313F00103EDD1B5F90C206B6088
S21440187022F400632969AB81DA042960B9D5002CCB
S214401880B7D12865B5E7EA6B002A8CDCD8E7012398
S214401890E9694046A047431C024602D0AB89AC6A81
S2144018A08EE7D8F80030002BF8D01D2B01D0162B31
S2144018B002D1C8F80060C3E7AB8943F04003AB8170
S2144018C0BDE8F0810100402038B50D46044608B119
S2144018D0836BBBB1B5F90C0088B16B6EDB0701D4E6
S2144018E0810517D520462946FFF74EFF6B6EDA076F
S2144018F0044602D4AB899B0507D5204638BD04462E
S214401900204638BD00F038F8E4E7A86D00F0ECF962
S214401910204638BDA86D00F0E5F9E3E7014900F040
S214401920B3B900BF9124400010B50023044681811E
S214401930C2810360436083604366036143618361A1
S214401940194608225C30FFF7F1FD07480749084A68
S214401950084B2062E4616162A262E36204F15800CF
S214401960BDE8104000F0BAB9F52240001923400007
S214401970552340007523400010B50446124800F039
S214401980B1F9A26BD2B904F53B731048C4F8E832FB
S2144019900321C4F8E022E063C4F8E412606804213E
S2144019A0FFF7C2FF01220921A068FFF7BDFF022210
S2144019B01221E068FFF7B8FF0123A3630248BDE8A1
S2144019C0104000F091B900BF9C0C00201D1940004B
S2144019D0014800F087B900BFB00C0020014800F075
S2144019E083B900BFB00C002038B50A4C0A4D641BC2
S2144019F0A4100AD004F18043013B05EB8305013C6B
S214401A0055F804399847002CF9D1BDE8384001F024
S214401A10B3B900BF882D4000842D4000F8B5244F50
S214401A200C46064600F048FCBB685D68C4F57E611F
S214401A300F3125F00305294421F47F6121F00F0181
S214401A40A1F58054B4F5805F07DB0021304600F0F6
S214401A503FFCBB682B44984204D0304600F032FC32
S214401A600020F8BD6142304600F032FC01300DD017
S214401A70104BBA6819682D1B45F001053046091B06
S214401A805560196000F01EFC0120F8BD002130466C
S214401A9000F01EFCBA68831A0F2BDEDD064C0549A3
S214401AA0246843F00103001B53600860D5E700BF7D
S214401AB04C040020400C002054080020002944D04C
S214401AC02DE9F0410D46804600F0F6FB55F8047CC3
S214401AD0694927F00103A5F10804E2188E685068AA
S214401AE0B24220F003005ED0FE0750600BD455F89B
S214401AF0087CE41B01F1080EA56875453B446DD093
S214401B00E768EF60BD6015186D68ED073ED543F099
S214401B1001026260E350B3F5007F17D2DB08581C21
S214401B209A104D6851F83070A7600123934001EB3E
S214401B30C0022B43083AE2604B6041F83040FC60FC
S214401B404046BDE8F04100F0BDBB70475A0A042A43
S214401B5052D89A0902F13907FF0002F13805C81930
S214401B60CA59083890424FD0516821F003018B4241
S214401B7032D292689042F7D1C368A060E3609C601E
S214401B80C4604046BDE8F04100F09CBB95683B4FC2
S214401B90BD42034440D0D068E86043F0010285600F
S214401BA06260E350B7E7FF07034407D455F8082CB4
S214401BB0A41A1344A068E268C2609060304A126873
S214401BC043F00100934260608C60B9D32D4B404691
S214401BD01968FFF723FFB3E71046CDE711184968A9
S214401BE0C90744D49168D268CA60034443F00100F0
S214401BF091606060E350A3E7142A16D802F15C07B0
S214401C00FF0002F15B05AAE7AA1001234D68934046
S214401C102B434B600346B0E743F001024C610C6136
S214401C20E560A5606260E3508AE7542A06D81A0B3E
S214401C3002F16F07FF0002F16E0590E7B2F5AA7F4A
S214401C4006D8DA0B02F17807FF0002F1770586E73F
S214401C5040F25450824206D89A0C02F17D07FF00AB
S214401C6002F17C057BE74FF47E777E2577E743F0ED
S214401C7001016160136063E74C04002054040020B7
S214401C8058080020700C00202DE9F84310F53877EE
S214401C901FD0884606464FF000097D68BC68013D67
S214401CA011D4A389012B05F1FF3508D9B4F90E30BC
S214401CB001332146304602D0C04749EA00096B1C32
S214401CC004F16804EDD13F68002FE6D14846BDE8F0
S214401CD0F883B9464846BDE8F88300BF704700BF62
S214401CE0704700BF704700BF704700BF70B50C46D6
S214401CF0B1F90E10002990B015461E4614DB01AA15
S214401D0000F028FC00280FDB029A02F47042A2F58D
S214401D100052B2FA82F252094FF480634FF40060E8
S214401D2032602B6010B070BDA289002312F0800094
S214401D30336004D0402218462A6010B070BD4FF47D
S214401D4080632B6010B070BD024B0146186800F0EF
S214401D5003B800BF180000202DE9F04F01F10B0634
S214401D60162E83B0054640F29E8036F0070600F1F8
S214401D70BD80B14200F2BA8000F09EFAB6F5FC7F14
S214401D80C0F09382730A00F0B880042B00F2798189
S214401D90B30903F1390003F1380EC300BF4F3B448B
S214401DA0A3F108015C68A14206D10CE0002A80F24B
S214401DB0AA80E468A14206D0636823F003039A1B16
S214401DC00F2AF3DD70463C69DFF8E4E2744500F024
S214401DD0AB81636823F003039A1B0F2A00F39081BC
S214401DE0002AC7F814E0C7F810E080F29D80B3F5EB
S214401DF0007F80F06181DB0803F1010C99107A685E
S214401E0057F83C80C4F8088001238B4007EBCC0190
S214401E1013430839E1607B6047F83C40C8F80C4003
S214401E208210012494409C4200F28B801C4206D1D2
S214401E3020F0030064001C4200F10400FAD007EBD7
S214401E40C009CC468046DCF80C309C4507D16DE195
S214401E50002A80F27B81DB689C4500F067815968E8
S214401E6021F003018A1B0F2AF2DDD3F80CC0D3F809
S214401E70088000939C19284646F0010642F001056A
S214401E805E60C8F80CC0CCF808807C613C61C4F841
S214401E900CE0C4F808E065605A5000F013FA009B66
S214401EA003F108041EE0102920D800F005FA102699
S214401EB018230220794F3B44A3F108025C68944201
S214401EC000F03D816368E168A66823F0030323447D
S214401ED028465A68F16042F001028E605A6000F06F
S214401EE0F1F90834204603B0BDE8F08F00240C23F7
S214401EF020462B6003B0BDE8F08F40204FF40073BF
S214401F004FF03F0E4AE72344E1685A68A66842F01D
S214401F100102F16028468E605A6000F0D3F908341A
S214401F20204603B0BDE8F08F234428465A6842F066
S214401F3001025A6000F0C6F90834204603B0BDE8F6
S214401F40F08FBC68636823F00308B04504D3A8EB61
S214401F5006030F2B00F38580DFF85891504BD9F8D5
S214401F6000201B680132334404EB080A00F0558118
S214401F7003F580530F3323F47F6B2BF00F0B59463A
S214401F80284600F0A5F9411C024600F0FC80824538
S214401F9000F2F780434B19685944196000F04D81B0
S214401FA0D9F8000001301BBFA2EB0A0A5144C9F819
S214401FB00020196012F0070100F01581C1F10800F9
S214401FC0C1F580510244083102EB0B09C9F30B09F5
S214401FD0A1EB0909494628460193009200F078F99A
S214401FE0431C9DE80C0000F04381801A484440F0B2
S214401FF001001968BA604944BC425060196017D065
S214402000B8F10F0F40F2FB806068A8F10C0222F096
S214402010070204EB020E00F001004FF0050C1043DF
S2144020200F2A6060CEF804C0CEF808C000F21781D0
S2144020301D4BBC681A68914288BF19601B4B1A68D2
S2144020409142626888BF196022F003029642A2EB72
S214402050060301D80F2B04DC284600F033F9002491
S21440206040E7A21943F0010346F0010666602846A1
S214402070BA60536000F026F90834204603B0BDE845
S214402080F08F142B71D9542B00F2A380330B03F13D
S2144020906F0003F16E0EC30080E600BF4C040020C4
S2144020A0700C0020400C0020680C00206C0C0020B7
S2144020B054040020540800205A0A042A5BD9142AE3
S2144020C000F2AE8002F15C01C9005B3207EB010C06
S2144020D07958ACF1080C8C4500F088804A6822F0AC
S2144020E00302934273D289688C45F7D1DCF80C2002
S2144020F07B68E260C4F808C09460CCF80C408FE679
S214402100A11946F0010C42F00106C4F804C0284666
S21440211079613961C1F80CE0C1F808E04E60E250E0
S21440212000F0D0F80834DDE67B6879E608F101086F
S21440213018F0030F0CF1080C7FF485AE2DE0DC6838
S214402140A34208BF02303FF43EAEBBE619441C46ED
S2144021504A68DB6854F8086F42F001024A60284635
S214402160F3609E6000F0AEF8BCE603F15C0003F15D
S2144021705B0EC30012E69A0902F13901C9003832F3
S214402180A4E7BC4254D0BC68626822F003025DE714
S21440219059F80839994540F0868010F0030F00F151
S2144021A0FF30F5D17B6823EA04037B6064009C42E1
S2144021B03FF6C7AE002C3FF4C4AE1C4240467FF408
S2144021C03EAE64001C4200F10400FAD037E68C466E
S2144021D08CE7B3F5AA7F15D8F30B03F1780003F12B
S2144021E0770EC300DAE54FF48051EDE67B68921037
S2144021F0012101FA02F213437B60624679E701232C
S214402200536029E740F25452934222D8B30C03F16C
S2144022107D0003F17C0EC300C0E503F1100BAEE673
S214402220542A29D81A0B02F16F01C9006E324DE7C5
S214402230204B196859441960B2E6CAF30B000028CF
S2144022407FF4AEAE08EB0B03BA6843F0010353606D
S214402250EEE67F204FF47E734FF07E0E9EE504F14F
S214402260080128460093FFF729FC009B1968DFE623
S21440227001204FF00009BCE6B2F5AA7F05D8DA0B7C
S21440228002F17801C900773220E740F254518A4281
S21440229005D89A0C02F17D01C9007C3216E74FF44E
S2144022A07E717E2212E77B6880E7F00806F108031D
S2144022B000E600BF400C00200148FFF713BD00BFFA
S2144022C0A00C00200148FFF70FBD00BFA00C002067
S2144022D038B5074C0023054608462360FEF780FFC6
S2144022E0431C00D038BD2368002BFBD02B6038BD84
S2144022F0B40C002010B50C46B1F90E1000F054F99D
S214402300002803DB236D0344236510BDA38923F413
S2144023108053A38110BD00BF2DE9F0411646B1F9A8
S2144023200C201F46D3050C46054607D5002202233F
S214402330B1F90E1000F022F9B4F90C20B4F90E10E1
S21440234022F48052A2813B4632462846BDE8F04100
S21440235000F014B810B50C46B1F90E1000F00EF9A6
S214402360A389421C0EBF23F4805343F48053206558
S214402370A38110BDB1F90E1000F078B870B50D46C7
S214402380084C114606461A46284600232360FDF7A9
S21440239039FF431C00D070BD2368002BFBD0336050
S2144023A070BD00BFB40C00202DE9F8432C4D064606
S2144023B0286898460F469146FFF794FC294B1C68C0
S2144023C0D4F84831002B3ED05A681F2A1CDC02F154
S2144023D0010E76B103EB82010124C1F88890D3F850
S2144023E0880194402043022EC3F88801C1F8088132
S2144023F023D00232C3F804E0286843F82270FFF77F
S21440240073FC0020BDE8F883174B0BB34FF4C8703D
S214402410FFF79AFC0346D8B1D4F848210260002161
S21440242041600A46C4F848014FF0010EC0F88811D2
S214402430C0F88C11002EDCD0CCE7D3F88C110C43BE
S214402440C3F88C41D5E704F5A673C4F84831BBE71A
S2144024502868FFF749FC4FF0FF30BDE8F88300BF1F
S21440246048040020602D4000491D400038B5074C08
S2144024700023054608462360FEF7CEFE431C00D0E8
S21440248038BD2368002BFBD02B6038BDB40C002031
S21440249070B559B105460C4610B1836B002B3CD045
S2144024A0636ED80705D5B4F90C302BB900263046F4
S2144024B070BDA38999053CD521462846FFF764F9A7
S2144024C0E36A064633B1E169284698470028B8BF14
S2144024D04FF0FF36A3891A0622D4216B41B104F18E
S2144024E04003994202D02846FFF7E8FA00232363C8
S2144024F0616C21B12846FFF7E1FA00236364FFF7D9
S21440250067FA636E0022DB07A2810ED5A06DFFF747
S214402510E7FBFFF763FA304670BDFFF72DFABFE7DB
S21440252021692846FFF7CAFAD7E7A06DFFF7DCFB1C
S214402530ECE7A06DFFF7D6FBB4F90C30002BBBD10F
S214402540666E16F00106B1D1A06DFFF7CDFB3046A2
S21440255070BD00BF38B50B46074C054611461846B9
S21440256000232360FEF75BFE431C00D038BD236883
S214402570002BFBD02B6038BDB40C002070B50D4648
S214402580084C114606461A46284600232360FEF7A6
S2144025904BFE431C00D070BD2368002BFBD033603D
S2144025A070BD00BFB40C002070B50D46084C1146F7
S2144025B006461A46284600232360FDF705FE431CC0
S2144025C000D070BD2368002BFBD0336070BD00BFC9
S2144025D0B40C0020000000000000000000000000D6
S2144025E000000000000000000000000000000000A6
S2144025F0FFCCFFCC00000000000000000000000000
S214402600F000F00000000000F000F00000000000C5
S2144026100CC00CC0FFFCFFFC0CC00CC0FFFCFFFC59
S2144026200CC00CC00C601E703F303330FFFCFFFC0B
S214402630333033F039E018C06000F00CF03C60F006
S21440264003C00F003C18F03CC03C00183CF07FF83C
S214402650C31CC78CCFCCDCEC7878303000FC00CC88
S2144026600000000000004400EC00F800700000008D
S21440267000000000000000000FC03FF078786018AF
S214402680C00CC00C0000000000000000C00CC00CD5
S214402690601878783FF00FC0000000000C600EE035
S2144026A007C003803FF83FF8038007C00EE00C6089
S2144026B003000300030003003FF03FF00300030065
S2144026C003000300004400EC00F800700000000027
S2144026D000000000000000000300030003000300A9
S2144026E00300030003000300030003000018003C3F
S2144026F0003C001800000000000000000000000041
S2144027000000000C003C00F003C00F003C00F0004E
S214402710C00000003FF07FF8E0FCC1CCC38CC70C83
S214402720CE0CFC1C7FF83FF000000000300C700C14
S214402730FFFCFFFC000C000C00000000300C701C7E
S214402740E03CC07CC0ECC1CCC38CE70C7E0C3C0C9F
S21440275030307038E01CC00CC00CC30CC30CE31CFB
S2144027607FF83CF003C007C00EC01CC038C070C025
S214402770FFFCFFFC00C000C0FC30FC38CC1CCC0C7E
S214402780CC0CCC0CCC0CCE1CC7F8C3F03FF07FF87A
S214402790E31CC30CC30CC30CC30CE39C71F830F0B1
S2144027A0C000C000C000C000C3FCC7FCCE00DC00B8
S2144027B0F800F0003CF07FF8E79CC30CC30CC30C59
S2144027C0C30CE79C7FF83CF03C007E00E70CC30C53
S2144027D0C31CC338C370E7E07FC03F8000000000E2
S2144027E0000018603CF03CF018600000000000005C
S2144027F000000000000018443CEC3CF81870000054
S214402800000000000000030007800FC01CE0387086
S2144028107038E01CC00C00000CC00CC00CC00CC0D3
S2144028200CC00CC00CC00CC00CC00CC00000C00CCF
S214402830E01C703838701CE00FC0078003000000B2
S21440284030007000E000C000C1ECC3ECC300E600FE
S2144028507E003C0030F071F8E39CC30CC3FCC3FC24
S214402860C00CE01C7FF83FF03FFC7FFCE0C0C0C0DF
S214402870C0C0C0C0C0C0E0C07FFC3FFCFFFCFFFC47
S214402880C30CC30CC30CC30CC30CE79C7FF83CF0D2
S2144028903FF07FF8E01CC00CC00CC00CC00CE01C25
S2144028A070383030FFFCFFFCC00CC00CC00CC00CB5
S2144028B0C00CE01C7FF83FF0FFFCFFFCC30CC30CD1
S2144028C0C30CC30CC30CC30CC00CC00CFFFCFFFCF9
S2144028D0C300C300C300C300C300C300C000C000A1
S2144028E03FF07FF8E01CC00CC00CC30CC30CE31CCC
S2144028F073F833F0FFFCFFFC030003000300030003
S21440290003000300FFFCFFFC00000000C00CC00CEE
S214402910FFFCFFFCC00CC00C00000000003000387C
S214402920C01CC00CC00CC01CFFF8FFF0C000C000AC
S214402930FFFCFFFC078007800FC01CE03870703833
S214402940E01CC00CFFFCFFFC000C000C000C000C54
S214402950000C000C000C000CFFFCFFFC7000380064
S2144029601F001F0038007000FFFCFFFCFFFCFFFC50
S2144029701C000E000700038001C000E0FFFCFFFCC7
S2144029803FF07FF8E01CC00CC00CC00CC00CE01C34
S2144029907FF83FF0FFFCFFFCC300C300C300C3004A
S2144029A0C300E7007E003C003FF07FF8E01CC00C10
S2144029B0C0CCC0ECC07CE0387FFC3FECFFFCFFFCAA
S2144029C0C300C380C380C3C0C3C0E7707E3C3C1C0A
S2144029D03C187E1CE70CC30CC30CC30CC30CC39C36
S2144029E0E1F860F0C000C000C000C000FFFCFFFC83
S2144029F0C000C000C000C000FFF0FFF8001C000C84
S214402A00000C000C000C001CFFF8FFF0FFC0FFE0BD
S214402A1000700038001C001C00380070FFE0FFC04B
S214402A20FFF0FFF8001C003C00F800F8003C001CDB
S214402A30FFF8FFF0F03CF87C1CE00FC007800780F2
S214402A400FC01CE0F87CF03CFC00FE000700038052
S214402A5001FC01FC03800700FE00FC00C03CC07C7B
S214402A60C0ECC1CCC38CC70CCE0CDC0CF80CF00C04
S214402A7000000000FFFCFFFCC00CC00CC00C0000B7
S214402A8000000000300030000C000C000300030083
S214402A9000C000C00030003000000000C00CC00C79
S214402AA0C00CFFFCFFFC0000000000000C001C00F7
S214402AB038007000E000E000700038001C000C0099
S214402AC0000C000C000C000C000C000C000C000C61
S214402AD0000C000C00000000C000E0007000380051
S214402AE01800000000000000003006780EFC0CCCF9
S214402AF00CCC0CCC0CCC0ECC07FC03F8FFFCFFFC3B
S214402B00030C030C030C030C030C039C01F800F0AD
S214402B1003F007F80E1C0C0C0C0C0C0C0C0C0E1CCA
S214402B200738033000F001F8039C030C030C030C39
S214402B30030C030CFFFCFFFC03F007F80EDC0CCC88
S214402B400CCC0CCC0CCC0EDC07D803900000030059
S214402B503FFC7FFCE300E300700030000000000014
S214402B600318079C0FCC0CCC0CCC0CCC0CCC0CDC3F
S214402B700FF807F0FFFCFFFC030003000300030010
S214402B80038001FC00FC0000000000000000000084
S214402B901BFC1BFC00000000000000000000003092
S214402BA00038001C000C000C001CCFF8CFF00000D2
S214402BB00000FFFCFFFC00E001E003F007380E1CBD
S214402BC00C0C000000000000C00CC00CFFFCFFFC1A
S214402BD0000C000C000000000FFC0FFC0E0007006D
S214402BE003C003C007000E000FFC0FFC0FFC0FFCD9
S214402BF0030007000E000C000C000E0007FC03FC50
S214402C0003F007F80E1C0C0C0C0C0C0C0C0C0E1CD9
S214402C1007F803F00FFC0FFC0CC00CC00CC00CC037
S214402C200CC00FC007800300030007800FC00CC015
S214402C300CC00CC00CC00CC00FFC0FFC0FFC0FFCF3
S214402C40038007000E000C000C000E000700030077
S214402C500318079C0FCC0CCC0CCC0CCC0CCC0CFC2E
S214402C600E78063000000C000C00FFF0FFF80C1C3D
S214402C700C1C0C380C3000000FF00FF8001C000C39
S214402C80000C000C000C001C0FF80FF00FC00FE0FB
S214402C9000700038001C001C003800700FE00FC0A9
S214402CA00FF00FF8001C001C00F800F8001C001C79
S214402CB00FF80FF00C0C0E1C073803F001E001E093
S214402CC003F007380E1C0C0C0C000E00070C039C7F
S214402CD001F801F0038007000E000C000C0C0C1CE1
S214402CE00C3C0C7C0CEC0DCC0F8C0F0C0E0C0C0C16
S214402CF00000030007803FF07CF8E01CC00CC00CCE
S214402D00C00C0000030C030C3FFC7FFCE30CC30C20
S214402D10C00CE00C700C300C0000C00CC00CC00C9A
S214402D20E01C7CF83FF0078003000000C000C000B5
S214402D30C000C000C000C000C000C000C000C0004E
S214402D40FFFCFFFCFFFCFFFCFFFCFFFCFFFCFFFC66
S214402D50FFFCFFFC757273646167207465787400CD
S214402D6020000020F8B500BFF8BC08BC9E4670475F
S214402D70691740001D014000F8B500BFF8BC08BC0C
S20C402D809E467047F900400032
S214402D88BFF35F8F0138FBD170470100F0000000A9
S214402D984001000000093D0020000020000000001F
S214402DA8000000000C03002074030020DC03002011
S214402DB800000000000000000000000000000000C6
S214402DC800000000000000000000000000000000B6
S214402DD800000000000000000000000000000000A6
S214402DE80000000000000000000000000000000096
S214402DF80000000000000000000000000000000086
S214402E080000000000000000000000000000000075
S214402E180000000000000000000000000000000065
S214402E280000000000000000000000000000000055
S214402E380000000000000000000000000000000045
S214402E480000000000000000010000000000000034
S214402E580E33CDAB34126DE6ECDE05000B000000F9
S214402E680000000000000000000000000000000015
S214402E780000000000000000000000000000000005
S214402E8800000000000000000000000000000000F5
S214402E9800000000000000000000000000000000E5
S2144031C80000000000000000900C002000000000F6
S2144031D8000000004C0400204C040020540400204A
S2144031E8540400205C0400205C0400206404002092
S2144031F8640400206C0400206C0400207404002042
S214403208740400207C0400207C04002084040020F1
S214403218840400208C0400208C04002094040020A1
S214403228940400209C0400209C040020A404002051
S214403238A4040020AC040020AC040020B404002001
S214403248B4040020BC040020BC040020C4040020B1
S214403258C4040020CC040020CC040020D404002061
S214403268D4040020DC040020DC040020E404002011
S214403278E4040020EC040020EC040020F4040020C1
S214403288F4040020FC040020FC0400200405002070
S214403298040500200C0500200C050020140500201D
S2144032A8140500201C0500201C05002024050020CD
S2144032B8240500202C0500202C050020340500207D
S2144032C8340500203C0500203C050020440500202D
S2144032D8440500204C0500204C05002054050020DD
S2144032E8540500205C0500205C050020640500208D
S2144032F8640500206C0500206C050020740500203D
S214403308740500207C0500207C05002084050020EC
S214403318840500208C0500208C050020940500209C
S214403328940500209C0500209C050020A40500204C
S214403338A4050020AC050020AC050020B4050020FC
S214403348B4050020BC050020BC050020C4050020AC
S214403358C4050020CC050020CC050020D40500205C
S214403368D4050020DC050020DC050020E40500200C
S214403378E4050020EC050020EC050020F4050020BC
S214403388F4050020FC050020FC050020040600206B
S214403398040600200C0600200C0600201406002018
S2144033A8140600201C0600201C06002024060020C8
S2144033B8240600202C0600202C0600203406002078
S2144033C8340600203C0600203C0600204406002028
S2144033D8440600204C0600204C06002054060020D8
S2144033E8540600205C0600205C0600206406002088
S2144033F8640600206C0600206C0600207406002038
S214403408740600207C0600207C06002084060020E7
S214403418840600208C0600208C0600209406002097
S214403428940600209C0600209C060020A406002047
S214403438A4060020AC060020AC060020B4060020F7
S214403448B4060020BC060020BC060020C4060020A7
S214403458C4060020CC060020CC060020D406002057
S214403468D4060020DC060020DC060020E406002007
S214403478E4060020EC060020EC060020F4060020B7
S214403488F4060020FC060020FC0600200407002066
S214403498040700200C0700200C0700201407002013
S2144034A8140700201C0700201C07002024070020C3
S2144034B8240700202C0700202C0700203407002073
S2144034C8340700203C0700203C0700204407002023
S2144034D8440700204C0700204C07002054070020D3
S2144034E8540700205C0700205C0700206407002083
S2144034F8640700206C0700206C0700207407002033
S214403508740700207C0700207C07002084070020E2
S214403518840700208C0700208C0700209407002092
S214403528940700209C0700209C070020A407002042
S214403538A4070020AC070020AC070020B4070020F2
S214403548B4070020BC070020BC070020C4070020A2
S214403558C4070020CC070020CC070020D407002052
S214403568D4070020DC070020DC070020E407002002
S214403578E4070020EC070020EC070020F4070020B2
S214403588F4070020FC070020FC0700200408002061
S214403598040800200C0800200C080020140800200E
S2144035A8140800201C0800201C08002024080020BE
S2144035B8240800202C0800202C080020340800206E
S2144035C8340800203C0800203C080020440800201E
S2104035D844080020FFFFFFFF0000020038
S804400F9913
